:020000040800F2
:105000000808002071510008E1510008DD51000836
:105010009B5100089D5100089F51000800000000AE
:10502000000000000000000000000000E95100083E
:10503000A351000800000000E5510008ED510008F0
:10504000A9510008A951000800000000A95100085A
:10505000A9510008A9510008A9510008A951000848
:10506000A9510008A9510008A9510008A951000838
:10507000A9510008A9510008A9510008A951000828
:10508000A9510008A9510008A9510008A951000818
:10509000A9510008A9510008A9510008A951000808
:1050A000A9510008A9510008A9510008A9510008F8
:1050B000A9510008A9510008A9510008A9510008E8
:1050C000A9510008A9510008A9510008A9510008D8
:1050D000A9510008A9510008A9510008A9510008C8
:1050E000A9510008A9510008A9510008A9510008B8
:1050F000A9510008A9510008A9510008A9510008A8
:10510000A9510008A951000800000000A951000899
:105110000000000000000000A9510008A95100088B
:10512000A9510008A9510008A9510008A951000877
:10513000A951000800000000A9510008A951000869
:10514000A9510008A9510008A9510008A951000857
:10515000A9510008A9510008A9510008DFF80CD096
:1051600000F02AF800480047B15200080808002063
:105170000E4802680E4802EA00024FEA12424FEA65
:1051800082224FF000514FF0000001C1121F002A8F
:10519000FBD108480047FEE7FEE7FEE7FEE7FEE733
:1051A000FEE7FEE7FEE7FEE7FEE70000E0F7FF1F91
:1051B0000000FFFF5D510008064C074D06E0E06867
:1051C00040F0010394E8070098471034AC42F6D34E
:1051D000FFF7C8FFA0530008B0530008FFE7FEE741
:1051E00070470000704700007047000080B500F075
:1051F00001F880BD40F20000C2F20000006840B13A
:10520000FFE740F20001C2F20001086801380860BF
:10521000FFE7704787B006900591049203930698C4
:10522000006801900698C06800900020ADF80A0060
:10523000FFE7BDF80A000F2832D8FFE7BDF80A10D3
:105240000398C840C00720B3FFE7BDF80A0041003B
:10525000032000FA01F20199914301910599BDF8EB
:105260000A20520001FA02F2019911430191BDF89E
:105270000A10490000FA01F1009888430090049850
:10528000BDF80A10490000FA01F1009808430090A7
:10529000FFE7FFE7BDF80A000130ADF80A00C8E7F4
:1052A00001980699086000980699C86007B0704791
:1052B00080B588B00020059007904FF000604FF453
:1052C000A04100F049F8059A41F21401C4F202012C
:1052D0000391086840F4003008604FF090400121CD
:1052E00004914FF480730193FFF794FF0198039B9F
:1052F0000499059A40F2180CC4F6000CCCF8000092
:10530000186840F40020186040F60000C4F6000061
:105310004FF400630293FFF77DFF0298039B04990B
:10532000059A40F6180CC4F6000CCCF8000018687A
:1053300040F48020186040F20040C4F600000823CA
:105340000693FFF767FF069840F21841C4F6000184
:105350000860FFE7FEE7000082B00190009101982D
:1053600000994FF68072C1F6FF72114008434EF665
:105370000851CEF200010860BFF34F8F02B07047B2
:1053800002E008C8121F08C1002AFAD1704770470E
:10539000002001E001C1121F002AFBD1704700006C
:1053A000B0530008000000200808000090530008D7
:040000050800515D41
:00000001FF
