:020000040800F2
:10000000000A002071010008B90B0008D5030008A0
:100010009F010008A1010008A301000800000000E2
:10002000000000000000000000000000C10B0008FC
:10003000A701000800000000BD0B0008DD0C00084F
:10004000AD010008AD01000800000000AD0100088E
:10005000AD010008AD010008AD010008AD010008C8
:10006000AD010008AD010008AD010008AD010008B8
:10007000AD010008AD010008AD010008AD010008A8
:10008000AD010008AD010008AD010008AD01000898
:10009000AD010008AD010008AD010008AD01000888
:1000A000AD010008AD010008AD010008AD01000878
:1000B000310E0008AD010008AD0100083D05000843
:1000C000D9030008D508000871070008AD01000831
:1000D000AD010008AD010008AD010008AD01000848
:1000E000AD010008AD010008AD010008AD01000838
:1000F000AD010008AD010008AD010008AD01000828
:10010000AD010008AD01000800000000AD010008CD
:100110000000000000000000AD010008AD01000873
:10012000AD010008AD010008AD010008AD010008F7
:10013000AD01000800000000AD010008AD0100089D
:10014000AD010008AD010008AD010008AD010008D7
:10015000AD010008AD010008AD010008DFF80CD0CA
:1001600000F052F800480047F5290008000A002076
:100170000F4802680F4802EA00024FEA12424FEAB3
:1001800082224FF000514FF0000001C1121F002ADF
:10019000FBD10948804709480047FEE7FEE7FEE734
:1001A000FEE7FEE7FEE7FEE7FEE7FEE7FEE700000C
:1001B000E0F7FF1F0000FFFFE50C00085D010008ED
:1001C00040EA01039B0703D009E008C9121F08C0D9
:1001D000042AFAD203E011F8013B00F8013B521E59
:1001E000F9D27047D2B201E000F8012B491EFBD2D0
:1001F00070470022F6E710B513460A460446194632
:10020000FFF7F0FF204610BD064C074D06E0E06802
:1002100040F0010394E8070098471034AC42F6D34D
:10022000FFF7A0FF403500086035000830B58C1896
:1002300010F8012B12F00F0301D110F8013B120945
:1002400006D110F8012B03E010F8015B01F8015B07
:100250005B1EF9D101E001F8013B521EFBD1A14226
:10026000E6D3002030BD000084B00390029140F23C
:100270006811C2F20001312081F88900FFE740F2E5
:100280006810C2F2000090F8891000200029009048
:100290000DD4FFE7039840F26811C2F2000191F813
:1002A0008910405CB0FA80F040090090FFE70098A8
:1002B000C00750B1FFE740F26811C2F2000191F8A7
:1002C0008900013881F88900D9E700208DF80700FE
:1002D00007208DF80700FFE79DF8070040F268113E
:1002E000C2F2000191F889100139884213DCFFE75E
:1002F00003989DF80710435C02990A684868D21871
:1003000040F100000A604860FFE79DF807000130F7
:100310008DF80700E0E704B07047000085B0049056
:100320000391029240F26811C2F20001312081F87B
:100330008900FFE740F26810C2F2000090F88910CF
:100340000020002900900DD4FFE7049840F26811C6
:10035000C2F2000191F88910405CB0FA80F04009C7
:100360000090FFE70098C00750B1FFE740F2681126
:10037000C2F2000191F88900013881F88900D9E7BB
:1003800000208DF8070002208DF80700FFE79DF898
:10039000070040F26811C2F2000191F8891001399A
:1003A00088420FDCFFE704989DF80710425C039930
:1003B000086810440860FFE79DF8070001308DF8D9
:1003C0000700E4E703980068C0430299087005B08D
:1003D00070470000FFE7FEE780B545F60000C4F275
:1003E00000000721C0F2086102F086FA50B1FFE771
:1003F00045F60000C4F200000721C0F2086102F0D7
:100400006BFAFFE745F60000C4F200000721C0F2D6
:10041000096102F071FA50B1FFE745F60000C4F23D
:1004200000000721C0F2096102F056FAFFE745F625
:100430000000C4F200000721C0F20A6102F05CFA79
:1004400050B1FFE745F60000C4F200000721C0F2FA
:100450000A6102F041FAFFE745F60000C4F200002D
:100460000721C0F20B6102F047FA50B1FFE745F6F1
:100470000000C4F200000721C0F20B6102F02CFA68
:10048000FFE745F60000C4F200000721C0F20C614E
:1004900002F032FA50B1FFE745F60000C4F2000066
:1004A0000721C0F20C6102F017FAFFE745F60000E1
:1004B000C4F200000721C0F20D6102F01DFA50B134
:1004C000FFE745F60000C4F200000721C0F20D610D
:1004D00002F002FA1DE045F60000C4F2000004211B
:1004E000C0F2046102F008FA90B1FFE745F600009F
:1004F000C4F200000421C0F2046102F0EDF940F200
:100500000801C2F20001087840F002000870FFE71D
:10051000FFE740F20801C2F200010020A1F8380113
:100520000A7802F0FE020A70A1F83201A1F8360141
:10053000087800F0FD00087080BD000080B582B032
:1005400045F60000C4F200000321C0F2036102F08E
:10055000D3F9E0B3FFE745F60000C4F200004FF422
:10056000803102F099F9024640F20800C2F2000020
:10057000017802F0010201F0FB0141EA8201017001
:1005800000788008C00740B9FFE740F20801C2F2D6
:1005900000010020A1F838010FE045F61801C4F26F
:1005A0000001086840F00100086040F20801C2F252
:1005B00000010020A1F83601FFE745F60000C4F273
:1005C00000000321C0F2036102F086F9CDE045F698
:1005D0000000C4F200000221C0F2026102F08CF9B6
:1005E00000283ED0FFE740F20040C4F600004FF480
:1005F000804101F0EDFF40F20800C2F20000B0F8C7
:100600003801312825DCFFE745F60000C4F2000080
:1006100002F0FCF8014640F20800C2F20000B0F817
:100620003831421CD1544078FE2808D0FFE740F210
:100630000801C2F200010020A1F83201FFE740F2F8
:100640000801C2F20001B1F838010130A1F8380107
:1006500006E045F60000C4F2000002F0D7F8FFE71C
:1006600082E045F60000C4F200000121C0F2016101
:1006700002F042F958B3FFE740F20801C2F200016C
:10068000B1F83601B1F83211884217DAFFE740F2CB
:100690000800C2F200000190B0F83611084490F84A
:1006A000331045F60000C4F2000002F0B7F80199DB
:1006B000B1F836010130A1F8360107E045F6000037
:1006C000C4F20000FF2102F0A9F8FFE74BE045F675
:1006D0000000C4F200000521C0F2056102F00CF92F
:1006E00050B3FFE745F60000C4F200000521C0F258
:1006F000056102F0F1F840F20800C2F20000007853
:100700008008C00748B9FFE740F20801C2F20001C3
:10071000087840F0010008700DE040F20801C2F2D4
:100720000001087840F0020008700020A1F83201B2
:10073000A1F83601FFE715E045F60000C4F200001D
:100740000421C0F2046102F0D7F850B1FFE745F68A
:100750000000C4F200000421C0F2046102F0BCF801
:10076000FFE7FFE7FFE7FFE7FFE702B080BD00001C
:1007700080B545F60000C4F200000721C0F2086110
:1007800002F0BAF850B1FFE745F60000C4F20000ED
:100790000721C0F2086102F09FF8FFE745F600006C
:1007A000C4F200000721C0F2096102F0A5F850B1BF
:1007B000FFE745F60000C4F200000721C0F209611E
:1007C00002F08AF8FFE745F60000C4F200000721B6
:1007D000C0F20A6102F090F850B1FFE745F6000060
:1007E000C4F200000721C0F20A6102F075F8FFE7C9
:1007F00045F60000C4F200000721C0F20B6102F0D0
:100800007BF850B1FFE745F60000C4F20000072175
:10081000C0F20B6102F060F8FFE745F60000C4F299
:1008200000000721C0F20C6102F066F850B1FFE74A
:1008300045F60000C4F200000721C0F20C6102F08E
:100840004BF8FFE745F60000C4F200000721C0F2B4
:100850000D6102F051F850B1FFE745F60000C4F217
:1008600000000721C0F20D6102F036F81DE045F6E8
:100870000000C4F200000421C0F2046102F03CF860
:1008800090B1FFE745F60000C4F200000421C0F279
:10089000046102F021F840F20801C2F20001087878
:1008A00040F002000870FFE7FFE740F20801C2F2E3
:1008B00000010020A1F838010A7802F0FE020A7057
:1008C000A1F83201A1F83601087800F0FD000870A7
:1008D00080BD000080B582B045F60000C4F2000083
:1008E0000321C0F2036102F007F8E0B3FFE745F629
:1008F0000000C4F200004FF4803101F0CDFF024649
:1009000040F20800C2F20000017802F0010201F09A
:10091000FB0141EA8201017000788008C00740B9FC
:10092000FFE740F20801C2F200010020A1F83801FF
:100930000FE045F61801C4F20001086840F001001C
:10094000086040F20801C2F200010020A1F836015F
:10095000FFE745F60000C4F200000321C0F2036186
:1009600001F0BAFFCDE045F60000C4F2000002211C
:10097000C0F2026101F0C0FF00283ED0FFE740F264
:100980000040C4F600004FF4804101F021FE40F227
:100990000800C2F20000B0F83801312825DCFFE77A
:1009A00045F60000C4F2000001F030FF014640F2BD
:1009B0000800C2F20000B0F83831421CD15440782F
:1009C000FE2808D0FFE740F20801C2F20001002033
:1009D000A1F83201FFE740F20801C2F20001B1F8CC
:1009E00038010130A1F8380106E045F60000C4F2F4
:1009F000000001F00BFFFFE782E045F60000C4F2C3
:100A000000000121C0F2016101F076FF58B3FFE759
:100A100040F20801C2F20001B1F83601B1F832111A
:100A2000884217DAFFE740F20800C2F200000190A6
:100A3000B0F83611084490F8331045F60000C4F2BF
:100A4000000001F0EBFE0199B1F836010130A1F888
:100A5000360107E045F60000C4F20000FF2101F076
:100A6000DDFEFFE74BE045F60000C4F20000052183
:100A7000C0F2056101F040FF50B3FFE745F600000A
:100A8000C4F200000521C0F2056101F025FF40F22B
:100A90000800C2F2000000788008C00748B9FFE7EC
:100AA00040F20801C2F20001087840F0010008702D
:100AB0000DE040F20801C2F20001087840F00200A7
:100AC00008700020A1F83201A1F83601FFE715E017
:100AD00045F60000C4F200000421C0F2046101F0F8
:100AE0000BFF50B1FFE745F60000C4F200000421FF
:100AF000C0F2046101F0F0FEFFE7FFE7FFE7FFE768
:100B0000FFE702B080BD000080B584B040F2004035
:100B1000C4F60000039005214FF4C072029201F068
:100B2000E5FC029B039802210122019201F0C2FD23
:100B30000199029B0398032201F00AFE0398002208
:100B40008023114601F0B6FD04B080BD80B584B0AD
:100B500045F60000C4F20000019005220023029334
:100B6000194601F019FF01981D21592201F0F4FEE8
:100B70000198029A342101F035FE019801F082FEBD
:100B80000198BE2101F09EFE02991F2001220392CE
:100B900002F00CF80299039A202002F007F802995B
:100BA000039A212002F002F80299039A222001F010
:100BB000FDFF04B080BD00007047000070470000DA
:100BC0007047000080B586B040F26810C2F20000A5
:100BD00000904FF0FF320292C0F84E20C0F84A2039
:100BE000C0F84620C0F84220C0F83E20C0F83A20A5
:100BF000C0F83620014641F8322F019101F020FC67
:100C0000009901985831049101F0C6FB009B019AAC
:100C100002980499C3F84E00C3F84A00C3F846008E
:100C2000C3F84200C3F83E00C3F83A00C3F83600E8
:100C3000106040F20000C2F200000390006801F072
:100C400003FB03980499006801F028FB002818BFF3
:100C500001208DF816009DF81600C00758B1FFE777
:100C600040F20001C2F20001086820300860012053
:100C70008DF8170003E000208DF81700FFE79DF8BE
:100C8000170006B080BD000080B582B000900098CB
:100C90000138B0F1807F03D3FFE70120019019E014
:100CA000009801384EF21401CEF2000108604FF0B6
:100CB000FF300F2100F094FE4EF21801CEF2000139
:100CC000002008604EF21002CEF2000207211160EF
:100CD0000190FFE7019802B080BD000080B501F0EF
:100CE0000FF880BD80B54EF68851CEF2000108683D
:100CF00040F47000086041F20001C4F2020108688B
:100D000040F00100086041F20402C4F202021068DF
:100D100020F00300106008684FF6FF73CFF686637B
:100D20001840086041F20803C4F202034FF47F0048
:100D300018604FF40030106041F22C02C4F202023D
:100D400000201060086820F48020086002F01CFA7F
:100D500041F21C00C4F202000068C000002838D430
:100D6000FFE741F21C01C4F20201086840F0805024
:100D7000086047F20000C4F200000068C0050028C7
:100D800015D4FFE747F20001C4F20001086840F4FF
:100D90008070086041F22002C4F20202106840F044
:100DA00004001060086820F48070086008E041F2D8
:100DB0002001C4F20201086840F004000860FFE767
:100DC00041F21C01C4F20201086820F08050086062
:100DD00027E047F20000C4F200000068C0050028C8
:100DE00015D4FFE747F20001C4F20001086840F49F
:100DF0008070086041F22002C4F20202106840F0E4
:100E000004001060086820F48070086008E041F277
:100E10002001C4F20201086840F004000860FFE706
:100E2000FFE74FF00060002101F064FF80BD00008B
:100E300080B54FF08040012102F0EEFA012847D141
:100E4000FFE74FF08040012102F0DCFA40F25A1037
:100E5000C2F200000088012808DBFFE740F25A11C7
:100E6000C2F2000108880138088007E040F25A11F8
:100E7000C2F2000142F210700880FFE740F25A10FF
:100E8000C2F200004088012808DBFFE740F25A1157
:100E9000C2F20001488801384880FFE740F25A104A
:100EA000C2F200000079012808DBFFE740F25A1186
:100EB000C2F2000108790138087108E040F20040F0
:100EC000C4F600004FF4804101F082FBFFE7FFE72A
:100ED00080BD000080B588B04FF4E06002F08CF86F
:100EE0004FF08040029002F06DF904A8019002F0EA
:100EF000B1FA0199029842F20F72ADF81020002267
:100F00000392ADF81220ADF8142009230693ADF832
:100F10001C2002F0DDF90298012102F069FA029822
:100F200002F0CCF9039A1C20114601F03FFE08B0F4
:100F300080BD000080B58EB040F25810C2F20000B3
:100F4000007801460A910E2800F2EE840A99DFE843
:100F500011F00F0022006500AA0002019B02E202CC
:100F6000F10211015D02AA0200030B045F04CF0429
:100F700040F25010C2F20000026843684CF20000D8
:100F8000C0F6030001F0C0F940F25811C2F20001AE
:100F900001200870FFE740F25A10C2F200000088FA
:100FA000012838DBFFE740F20800C2F20000013000
:100FB00043F29841C0F60001072200F033FD38B338
:100FC000FFE743F2DD41C0F600010868D1F80320D5
:100FD00040F20801C2F20001C1F83620C1F8330026
:100FE0000720A1F8320140F20040C4F600004FF49F
:100FF000804101F0E5FA40F25A11C2F2000164208A
:10100000087140F25811C2F200010220087001E09C
:1010100000F08BBC01E000F088BCFFE740F25A1002
:10102000C2F20000008801283ADBFFE740F2080026
:10103000C2F20000013043F29841C0F600010731CE
:10104000092200F0EFFC40B3FFE743F2DD41C0F6B8
:101050000001D1F80700D1F80A2040F20801C2F2DD
:101060000001C1F83620C1F833000720A1F8320191
:1010700040F20040C4F600004FF4804101F0A0FAB5
:1010800040F25A11C2F200016420087140F2581176
:10109000C2F200010320087001E000F046BC01E04C
:1010A00000F043BCFFE740F25A10C2F20000008893
:1010B00001284EDBFFE740F20800C2F200000130D9
:1010C00043F29841C0F600011031092200F0AAFC59
:1010D000E8B3FFE743F2DD41C0F60001D1F80E00AE
:1010E000D1F8112040F20801C2F20001C1F8362007
:1010F000C1F833000720A1F8320140F20040C4F6E5
:1011000000004FF4804101F05BFA40F25A11C2F244
:10111000000109916420087140F25010C2F20000F1
:101120000021416001210160026843684CF2000027
:10113000C0F6030001F0E8F809994FF4FA6048801E
:1011400040F25811C2F200010420087000E0ECE304
:1011500000E0EAE3FFE740F25A10C2F200004088E4
:1011600038B9FFE740F25811C2F2000108200870B8
:10117000DBE3DAE340F25A10C2F2000000880128F3
:10118000C0F24381FFE740F20800C2F200000130E4
:1011900043F29841C0F6000119310B2200F042FCE5
:1011A000002800F03181FFE740F24810C2F2000051
:1011B000016808684968013861F100010246089237
:1011C000D0F105004FF000008841C0F01B81089964
:1011D000DFE801F0032E5885B1DD43F2DD41C0F6B2
:1011E0000001D1F81500D1F81920CB6940F20801AF
:1011F000C2F20001C1F83A30C1F83720C1F833001B
:101200000B20A1F8320140F20040C4F600004FF478
:10121000804101F0D5F940F25A11C2F20001642078
:10122000087140F25811C2F2000109200870EAE08A
:1012300043F2DD41C0F60001086A4A6AD1F827305E
:1012400040F20801C2F20001C1F83A30C1F837207B
:10125000C1F833000B20A1F8320140F20040C4F67F
:1012600000004FF4804101F0ABF940F25A11C2F294
:1012700000016420087140F25811C2F200010A20F6
:101280000870C0E043F2DD41C0F60001D1F82B0048
:10129000D1F82F20D1F8323040F20801C2F200011B
:1012A000C1F83A30C1F83720C1F833000B2007905D
:1012B000A1F8320140F20040C4F600004FF4804132
:1012C00001F07EF9079840F25A12C2F2000264213E
:1012D000117140F25811C2F20001087093E043F21C
:1012E000DD41C0F60001D1F82B00D1F82F20D1F854
:1012F000323040F20801C2F20001C1F83A30C1F8C0
:101300003720C1F833000B20A1F8320140F2004031
:10131000C4F600004FF4804101F052F940F25A1136
:10132000C2F200016420087140F25811C2F20001BB
:101330000C20087067E043F2DD41C0F60001D1F8EF
:101340003600D1F83A20D1F83D3040F20801C2F21F
:101350000001C1F83A30C1F83720C1F833000B2042
:10136000A1F8320140F20040C4F600004FF4804181
:1013700001F026F940F25A11C2F20001642008710E
:1013800040F25811C2F200010D2008703BE040F21B
:101390005010C2F200000021416001600268436801
:1013A0004CF20000C0F6030000F0AEFF43F2DD4156
:1013B000C0F60001D1F85700D1F85B20D1F85E30BB
:1013C00040F20801C2F20001C1F83A30C1F83720FA
:1013D000C1F833000B20A1F8320140F20040C4F6FE
:1013E00000004FF4804101F0EBF840F25A11C2F2D4
:1013F00000016420087140F25811C2F200010E2071
:10140000087000E0FFE790E28FE28EE240F25A10AF
:10141000C2F200000088012835DBFFE740F2080037
:10142000C2F20000013043F29841C0F600012431BD
:101430000B2200F0F7FA28B3FFE745F20000C0F6F0
:1014400000006E2100F006FE40F25010C2F20000D3
:101450000021416002210160026843684CF20000F3
:10146000C0F6030000F050FF40F25A11C2F2000132
:101470004FF47A70488040F25811C2F20001052002
:10148000087052E251E250E240F25A10C2F20000FB
:10149000408838B9FFE740F25811C2F20001082035
:1014A000087042E241E240F25A10C2F200000088A5
:1014B00001282EDBFFE740F20800C2F200000130F5
:1014C00043F29841C0F600012F310B2200F0AAFA36
:1014D000E8B1FFE740F25010C2F200000021416085
:1014E00003210160026843684CF20000C0F603006B
:1014F00000F00AFF40F25A11C2F200016420488055
:1015000040F25811C2F200010620087000E00CE21F
:1015100000E00AE2FFE740F25A10C2F20000408801
:1015200038B9FFE740F25811C2F2000108200870F4
:10153000FBE1FAE140F25A10C2F20000408838B9EB
:10154000FFE740F25811C2F2000108200870ECE1F8
:10155000EBE140F25A10C2F2000000880128C0F20C
:101560000281FFE740F20800C2F200000078C007E5
:10157000002800F0F780FFE740F20801C2F2000106
:101580000591087800F0FE00087040F26810C2F281
:10159000000006903221FEF72CFE05990698B1F85E
:1015A00038210131FEF70CFE059A06980021A2F8B9
:1015B00038110078532840F0A480FFE740F268100B
:1015C000C2F200004078032840F09B80FFE740F221
:1015D0006810C2F20000049000F1840100F188025A
:1015E000FEF79CFE049991F8880091F88920895CA7
:1015F000884227D0FFE740F26811C2F200010020C4
:10160000C1F8840081F888008DF82F00FFE79DF86D
:101610002F0040F26811C2F2000191F8891088424F
:101620000FDCFFE79DF82F2040F26811C2F20001A5
:1016300000208854FFE79DF82F0001308DF82F001F
:10164000E5E772E140F26811C2F200010020C1F842
:10165000840081F88800FFF7B5FA01282DD1FFE753
:1016600040F26810C2F2000000F17801FEF7FCFDC4
:1016700043F2DD41C0F60001D1F84100D1F8452028
:101680008B6C40F20801C2F20001C1F83A30C1F897
:101690003720C1F833000B20A1F8320140F200409E
:1016A000C4F600004FF4804100F08AFF40F25A1166
:1016B000C2F200016420087137E143F2DD41C0F657
:1016C0000001C86C0A6DD1F8533040F20801C2F233
:1016D0000001C1F83A30C1F83720C1F833000B20BF
:1016E000A1F8320140F20040C4F600004FF48041FE
:1016F00000F066FF40F25A11C2F200016420087146
:1017000013E140F26810C2F20000007853281FD1A4
:10171000FFE740F26810C2F200004078072817D1B6
:10172000FFE740F26811C2F200010020C1F8840016
:1017300081F8880040F25011C2F200014860042094
:10174000086040F25811C2F200010C200870ECE071
:1017500040F26811C2F200010020C1F8840081F853
:101760008800E2E0E1E0E0E040F25A10C2F200005E
:10177000008801284BDBFFE740F20800C2F20000BE
:101780000078C007002841D0FFE740F20800C2F20D
:1017900000000290017801F0FE010170B0F83821DC
:1017A000411C40F26810C2F200000390FEF708FDF1
:1017B000029A03990020A2F83801CA79087A40EA0F
:1017C0000220A1F88A00B1F87800A1F88000B1F8F1
:1017D0008000B1F88A10884217D1FFE740F250101C
:1017E000C2F20000002141600521016002684368E7
:1017F0004CF20000C0F6030000F086FD40F25811E4
:10180000C2F20001062008708FE08EE08DE0FFE755
:1018100040F25A10C2F200000088012867DBFFE79F
:1018200040F20800C2F20000013043F29841C0F6D5
:1018300000013A310B2200F0F5F8002856D0FFE7FE
:1018400040F25010C2F2000000210191416001609D
:10185000026843684CF20000C0F6030000F054FD3B
:10186000019B4CF20040C0F603001A4600F04CFD0C
:1018700040F25811C2F200010E20087040F21150DF
:1018800001F0A6FB40F2157001F0A2FB4FF4E060FE
:1018900001F09EFB4FF0904000F0A2FE45F20040A8
:1018A000C4F2000000F0C4FF4FF0804001F08AFC59
:1018B00001F034FA45F20400C0F60000016840F27D
:1018C0006010C2F200000160016840F26410C2F2D0
:1018D0000000016045F20001C0F6000109680C91AA
:1018E0000C9981F30888006880471EE01DE01CE029
:1018F00045F20400C0F60000016840F26010C2F238
:1019000000000160016840F26410C2F20000016052
:1019100045F20001C0F6000109680D910D9981F3AF
:1019200008880068804700E0FFE70EB080BD000037
:1019300080B582B0FFE7FFF7FDFA00F09BF840F2B8
:101940000800C2F20000013043F29841C0F60001E5
:10195000072200F067F8C0B3FFE74CF20000C0F6C2
:101960000300002301931A4600F0CEFC019B4CF2C9
:101970000040C0F603001A4600F0C6FC43F2DD4109
:10198000C0F600010868D1F8032040F20801C2F255
:101990000001C1F83620C1F833000720A1F8320158
:1019A00040F20040C4F600004FF4804100F008FE11
:1019B00040F25A11C2F200016420087140F258113D
:1019C000C2F200010220087008E0FFE740F2581060
:1019D000C2F2000000780E28ADD1FFE702B080BD52
:1019E00082B08DF8070000919DF9070000280AD405
:1019F000FFE7009800019DF907104EF20042CEF279
:101A0000000288540BE0009800019DF8071001F0D7
:101A10000F014EF61452CEF200028854FFE702B0D6
:101A20007047000085B0039002918DF807200020D8
:101A30000090FFE700989DF80710884211DAFFE751
:101A40000398009A805C0299895C884204D0FFE781
:101A500000208DF8130008E0FFE7009801300090A7
:101A6000E8E701208DF81300FFE79DF8130005B0AB
:101A70007047000080B582B040F20800C2F200005A
:101A8000013043F29841C0F6000119310B22FFF7F3
:101A9000C9FF002800F03181FFE740F24810C2F290
:101AA0000000016808684968013861F100010246D8
:101AB0000192D0F105004FF000008841C0F01B8179
:101AC0000199DFE801F0032E5885B1DD43F2DD41D5
:101AD000C0F60001D1F81500D1F81920CB6940F209
:101AE0000801C2F20001C1F83A30C1F83720C1F84C
:101AF00033000B20A1F8320140F20040C4F6000090
:101B00004FF4804100F05CFD40F25A11C2F2000136
:101B10006420087140F25811C2F2000109200870D7
:101B2000EAE043F2DD41C0F60001086A4A6AD1F8F2
:101B3000273040F20801C2F20001C1F83A30C1F882
:101B40003720C1F833000B20A1F8320140F20040E9
:101B5000C4F600004FF4804100F032FD40F25A110B
:101B6000C2F200016420087140F25811C2F2000173
:101B70000A200870C0E043F2DD41C0F60001D1F850
:101B80002B00D1F82F20D1F8323040F20801C2F2F8
:101B90000001C1F83A30C1F83720C1F833000B20FA
:101BA0000090A1F8320140F20040C4F600004FF46A
:101BB000804100F005FD009840F25A12C2F2000286
:101BC0006421117140F25811C2F20001087093E0D3
:101BD00043F2DD41C0F60001D1F82B00D1F82F20EF
:101BE000D1F8323040F20801C2F20001C1F83A30B7
:101BF000C1F83720C1F833000B20A1F8320140F2C0
:101C00000040C4F600004FF4804100F0D9FC40F2DF
:101C10005A11C2F200016420087140F25811C2F258
:101C200000010C20087067E043F2DD41C0F60001BE
:101C3000D1F83600D1F83A20D1F83D3040F2080111
:101C4000C2F20001C1F83A30C1F83720C1F83300C0
:101C50000B20A1F8320140F20040C4F600004FF41E
:101C6000804100F0ADFC40F25A11C2F20001642044
:101C7000087140F25811C2F200010D2008703BE0DB
:101C800040F25010C2F20000002141600160026881
:101C900043684CF20000C0F6030000F035FB43F24D
:101CA000DD41C0F60001D1F85700D1F85B20D1F832
:101CB0005E3040F20801C2F20001C1F83A30C1F8CA
:101CC0003720C1F833000B20A1F8320140F2004068
:101CD000C4F600004FF4804100F072FC40F25A114B
:101CE000C2F200016420087140F25811C2F20001F2
:101CF0000E20087000E0FFE7FFE702B080BD0000A3
:101D000040F2F810C2F20000006840B1FFE740F274
:101D1000F811C2F20001086801380860FFE7704757
:101D200080B584B0039001208DF80B00FFE700F030
:101D300025F88DF80B00039801380390FFE79DF814
:101D40000B1000200129019006D1FFE7039800281D
:101D500018BF01200190FFE70198C0070028E6D1D5
:101D6000FFE79DF80B00012804D1FFE706208DF85E
:101D70000B00FFE79DF80B0004B080BD81B0002090
:101D80008DF8030042F20C00C4F202000068C007A4
:101D900020B1FFE701208DF8030054E042F20C006F
:101DA000C4F202000068C006002804D5FFE7052041
:101DB0008DF8030046E042F20C00C4F20200006815
:101DC0004007002804D5FFE703208DF8030038E022
:101DD00042F20C00C4F2020000688007002804D51B
:101DE000FFE702208DF803002AE042F20C00C4F263
:101DF000020000680007002804D5FFE704208DF8E2
:101E000003001CE042F20C00C4F20200006840062D
:101E1000002804D5FFE707208DF803000EE042F20A
:101E20000C00C4F2020000680004002804D5FFE79B
:101E300008208DF8030000E0FFE7FFE7FFE7FFE77A
:101E4000FFE7FFE7FFE79DF8030001B070470000E0
:101E500080B584B0039001208DF80B00FFE700F0FF
:101E600025F88DF80B00039801380390FFE79DF8E3
:101E70000B1000200129019006D1FFE703980028EC
:101E800018BF01200190FFE70198C0070028E6D1A4
:101E9000FFE79DF80B00012804D1FFE706208DF82D
:101EA0000B00FFE79DF80B0004B080BD81B000205F
:101EB0008DF8030042F24C00C4F202000068C00733
:101EC00020B1FFE701208DF8030054E042F24C00FE
:101ED000C4F202000068C006002804D5FFE7052010
:101EE0008DF8030046E042F24C00C4F202000068A4
:101EF0004007002804D5FFE703208DF8030038E0F1
:101F000042F24C00C4F2020000688007002804D5A9
:101F1000FFE702208DF803002AE042F24C00C4F2F1
:101F2000020000680007002804D5FFE704208DF8B0
:101F300003001CE042F24C00C4F2020000684006BC
:101F4000002804D5FFE707208DF803000EE042F2D9
:101F50004C00C4F2020000680004002804D5FFE72A
:101F600008208DF8030000E0FFE7FFE7FFE7FFE749
:101F7000FFE7FFE7FFE79DF8030001B070470000AF
:101F800080B58AB00990079306920998B0F1006F66
:101F900032D3FFE709984FF6FF71C0F6030188427C
:101FA0002AD8FFE74FF47F00FFF7BAFE8DF80F0045
:101FB00006980590079804909DF80F00D8B9FFE7A0
:101FC00042F21001C4F202010291086840F00100DF
:101FD00008600598099908600498099948604FF4C9
:101FE0007F00FFF79DFE02998DF80F00086820F032
:101FF00001000860FFE729E04FF47F00FFF728FFAA
:102000008DF80F0006980590079804909DF80F0032
:10201000D8B9FFE742F25001C4F202010191086809
:1020200040F0010008600598099908600498099932
:1020300048604FF47F00FFF70BFF01998DF80F0008
:10204000086820F001000860FFE7FFE79DF80F0037
:102050000AB080BD80B584B00390029100F06AF9A7
:1020600000F056F800208DF80700FFE79DF8070004
:102070000299884210D2FFE703989DF8071000EB01
:10208000812000F075F800F043F8FFE79DF80700A5
:1020900001308DF80700E9E700F058F804B080BD82
:1020A00083B0ADF80A00BDF80A00800901900198DC
:1020B00004281DD1FFE7BDF80A00800942F20002A2
:1020C000C4F2020280580090009820F06C4000900A
:1020D000BDF80A0000F01F01012000FA01F100988C
:1020E000084300900098BDF80A10890988500CE058
:1020F000BDF80A1001F01F0201209040890942F248
:102100000002C4F202028850FFE703B070470000EB
:1021100080B540F20530FFF7C3FF4FF44170FFF781
:10212000BFFF40F20330FFF7BBFF40F20230FFF782
:10213000B7FF40F20130FFF7B3FF40F20630FFF780
:10214000AFFF40F20F30FFF7ABFF80BD42F210014E
:10215000C4F20201086840F08000086042F25001B9
:10216000C4F20201086840F0800008607047000077
:1021700080B584B0039000208DF80B000398B0F177
:10218000006F32D3FFE703984FF6FF71C0F60301EB
:1021900088422AD8FFE74FF47F00FFF7C1FD8DF892
:1021A0000B009DF80B00F8B9FFE742F21001C4F2F2
:1021B00002010191086840F002000860039842F2B1
:1021C0001402C4F202021060086840F04000086087
:1021D0004FF47F00FFF7A4FD01998DF80B0008680C
:1021E00020F002000860FFE729E04FF47F00FFF7CE
:1021F0002FFE8DF80B009DF80B00F8B9FFE742F2B7
:102200005001C4F202010091086840F00200086029
:10221000039842F25402C4F202021060086840F0CF
:10222000400008604FF47F00FFF712FE00998DF820
:102230000B00086820F002000860FFE7FFE79DF848
:102240000B0004B080BD000080B584B00390029103
:1022500000F070F800208DF80700FFE79DF80700F8
:10226000032815DCFFE70398029A9DF8073002EB7C
:10227000C30152F833204B68FFF782FE0398083001
:102280000390FFE79DF8070001308DF80700E5E7B0
:10229000FFF73EFFFFF75AFF04B080BD85B0039003
:1022A00002910398019000208DF80300FFE79DF84C
:1022B000030003281FDCFFE7019908684968029BB7
:1022C0009DF803C003EBCC02526853F83C305840F1
:1022D0005140084320B1FFE700208DF813000EE0C5
:1022E000019808300190FFE7FFE79DF803000130F7
:1022F0008DF80300DBE701208DF81300FFE79DF860
:10230000130005B07047000080B584B003900193BE
:10231000009203980121FFF79DFE00F00BF803984F
:10232000009A019BFFF72CFEFFF7F2FEFFF70EFF6E
:1023300004B080BD42F21000C4F202000068000642
:1023400000280FD5FFE742F20801C4F2020140F273
:102350002310C4F26750086048F6AB10CCF6EF507B
:102360000860FFE742F25000C4F202000068000675
:1023700000280FD5FFE742F24801C4F2020140F203
:102380002310C4F26750086048F6AB10CCF6EF504B
:102390000860FFE77047000080B588B0079006919D
:1023A00000200590FFE70598032847DCFFE70020A1
:1023B000039002900190FFE7019807282FDCFFE7C8
:1023C0000599019800EBC100009000981F2821DCBE
:1023D000FFE707980099415CDDF804E04FEACE0280
:1023E0006FF01F0000EBCE0001FA00FC2023A3EBEE
:1023F000CE0321FA03F3002858BF634601FA02F224
:10240000002858BF002202980399194310430391F2
:102410000290FFE7FFE7019801300190CCE7029AB4
:102420000398069BDDF814C003EBCC0143F83C2075
:102430004860FFE7059801300590B4E708B080BD1B
:1024400083B0029040F26811C2F20001312081F89D
:102450008900FFE740F26810C2F2000090F889108E
:102460000020002900900DD4FFE7029840F2681187
:10247000C2F2000191F88910405CB0FA80F0400986
:102480000090FFE70098C00750B1FFE740F26811E5
:10249000C2F2000191F88900013881F88900D9E77A
:1024A00000208DF80700FFE79DF8070040F2681153
:1024B000C2F2000191F889100839884213DCFFE765
:1024C00002989DF807201044C07940F26811C2F2CA
:1024D0000001114481F83200FFE79DF80700013048
:1024E0008DF80700E0E703B07047000086B0059064
:1024F000049103920598006A01900598406A009043
:102500000020ADF80A00FFE7BDF80A00072821D82F
:10251000FFE7BDF80A100398C840C00798B1FFE76D
:10252000BDF80A0081000F2000FA01F101988843EC
:1025300001900498BDF80A10890000FA01F1019891
:1025400008430190FFE7FFE7BDF80A000130ADF84E
:102550000A00D9E70820ADF80A00FFE7BDF80A0035
:102560000F2825D8FFE7BDF80A100398C840C00718
:10257000B8B1FFE7BDF80A006FF01F0101EB800260
:102580000F2000FA02F20098904300900498BDF8E2
:102590000A2001EB820100FA01F100980843009043
:1025A000FFE7FFE7BDF80A000130ADF80A00D5E704
:1025B00001980599086200980599486206B070472D
:1025C00082B00190009100980199886202B0704732
:1025D00082B00190009100980199886102B0704723
:1025E00080B588B0079007980690B0F1904F28D03A
:1025F000FFE7069840F20041C4F60001884229D066
:10260000FFE7069840F60001C4F6000188422AD090
:10261000FFE7069840F60041C4F6000188422BD03F
:10262000FFE7069841F20001C4F6000188422CD071
:10263000FFE7069841F20041C4F6000188422DD020
:1026400035E040F61120059000F0FEFC059800F002
:10265000E7FC2DE040F61220049000F0F5FC049811
:1026600000F0DEFC24E040F61320039000F0ECFCC8
:10267000039800F0D5FC1BE040F61420029000F017
:10268000E3FC029800F0CCFC12E040F6152001902B
:1026900000F0DAFC019800F0C3FC09E040F61620D7
:1026A000009000F0D1FC009800F0BAFC00E0FFE7D9
:1026B00008B080BD87B006900591049203930698F8
:1026C000006801900698C06800900020ADF80A00EC
:1026D000FFE7BDF80A000F2832D8FFE7BDF80A105F
:1026E0000398C840C00720B3FFE7BDF80A004100C7
:1026F000032000FA01F20199914301910599BDF877
:102700000A20520001FA02F2019911430191BDF829
:102710000A10490000FA01F10098884300900498DB
:10272000BDF80A10490000FA01F100980843009032
:10273000FFE7FFE7BDF80A000130ADF80A00C8E77F
:1027400001980699086000980699C86007B070471C
:1027500086B005908DF81310039202939DF8130034
:10276000012806D1FFE7029A05994868104348609E
:1027700005E0029A0599486890434860FFE705988C
:10278000806800900020ADF80600FFE7BDF8060065
:102790000F2821D8FFE7BDF806100298C840C007EF
:1027A00098B1FFE7BDF806004100032000FA01F1EF
:1027B0000098884300900398BDF80610490000FA7D
:1027C00001F1009808430090FFE7FFE7BDF806001D
:1027D0000130ADF80600D9E700980599886006B089
:1027E0007047000083B002900191009201986FF34E
:1027F0009F200190009801990843029988600299EE
:10280000886840F40040886003B0704781B0009051
:102810000098406AC0B201B07047000082B00190D9
:1028200000919DF800000199886202B07047000095
:1028300080B584B003900398029045F20041C4F241
:102840000001884208D0FFE7029845F60001C4F273
:102850000001884209D011E040F21540019000F0DB
:10286000F3FB019800F0DCFB09E040F21640009019
:1028700000F0EAFB009800F0D3FB00E0FFE704B0B3
:1028800080BD000081B000900099086840F0010010
:10289000086001B07047000083B00190009101987A
:1028A00080690099084204D0FFE701208DF80B00F1
:1028B00003E000208DF80B00FFE79DF80B0003B04C
:1028C0007047000082B001900091009A0199086859
:1028D0001043086002B0704782B0019000910098E8
:1028E000C0F30441012000FA01F20199C8691043C4
:1028F000C86102B07047000085B0039002910020CB
:10290000019000900398BDF8081089094058029979
:1029100001F01F02012101FA02F210400190039818
:10292000029A920D8058029AC2F3044291400840E4
:102930000090019838B1FFE7009820B1FFE701202F
:102940008DF8130003E000208DF81300FFE79DF8D9
:10295000130005B07047000083B00290019100920F
:102960000299086920F47F4008610299086920F003
:10297000FF0008610198000280B201909DF80000FC
:1029800000900198009940EA0102029908691043F9
:10299000086103B07047000084B003900291019277
:1029A00000930399086920F0704008610399086951
:1029B00020F4700008610399086920F47020086110
:1029C000029800070290019800053FFA80F00190FC
:1029D00000994FF4702000EA01400090029801999C
:1029E0000843009940EA010203990869104308610D
:1029F00004B0704780B586B00020049040F26810A3
:102A0000C2F200009021FDF7F4FB40F24410C2F244
:102A1000000001680868496880F001000843E0B1DF
:102A2000FFE745F20400C0F60000016840F26010C4
:102A3000C2F200000160016840F26410C2F20000BE
:102A4000016045F20001C0F6000109680591059991
:102A500081F30888006880475EE040F24410C2F2CB
:102A6000000001680868496880F0010008430028F8
:102A700051D1FFE700F08CFB40F2125000F0BCFA9D
:102A800040F2167000F0B8FA4FF4E06000F0B4FACB
:102A9000FEF73AF8FEF75AF843F2DD41C0F60001BE
:102AA000D1F80E00D1F8112040F20801C2F2000165
:102AB000C1F83620C1F833000720A1F8320140F2F6
:102AC0000040C4F6000002904FF480410391FFF7EC
:102AD00077FD0298039B40F25A12C2F20002642171
:102AE0001171012100220192FFF7E4FD0199029882
:102AF000039B0322FFF72CFE02980399FFF768FD62
:102B0000FEF7E8F940F25811C2F2000108200870FF
:102B1000FEF70EFFFFE7FFE7FFE740F20800C2F213
:102B20000000013043F29841C0F600010722FEF791
:102B300079FFB0B3FFE74CF20000C0F603000121BB
:102B40000091FFF787FA00994CF20040C0F60300AD
:102B5000FFF780FA43F2DD41C0F600010868D1F8C2
:102B6000032040F20801C2F20001C1F83620C1F88A
:102B700033000720A1F8320140F20040C4F6000003
:102B80004FF48041FFF71CFD40F25A11C2F20001E0
:102B90006420087140F25811C2F20001022008704E
:102BA000FFE7FEF7C5FE002006B080BD80B584B00B
:102BB0008DF80F008DF80E108DF80D20002002907A
:102BC000019000904EF60C50CEF20000006800F428
:102BD000E060B0F5E06F05D1FFE700200190042030
:102BE00000904AE04EF60C50CEF20000006800F46F
:102BF000E060B0F5C06F05D1FFE701200190032030
:102C0000009039E04EF60C50CEF20000006800F45F
:102C1000E060B0F5A06F04D1FFE7022001900090C2
:102C200029E04EF60C50CEF20000006800F4E0609F
:102C3000B0F5806F05D1FFE70320019001200090DF
:102C400018E04EF60C50CEF20000006800F4E06090
:102C5000B0F5407F05D1FFE70420019000200090EF
:102C600007E04FF4A06000F037F8022001900090D8
:102C7000FFE7FFE7FFE7FFE7FFE79DF80E00019999
:102C8000C1F10401884002909DF80D000099C1F146
:102C900004020F21D140014002980843029002989B
:102CA0000001029002989DF80F104EF20042CEF201
:102CB000000288549DF80F2002F01F010120884077
:102CC0004EF20011CEF2000141EAD20121F00301DF
:102CD000086004B080BD000081B000900098002121
:102CE000C0F2FA5108434EF60C51CEF200010860D2
:102CF00001B0704782B001900091019800994FF6A1
:102D00008072C1F6FF72114008434EF60851CEF2B0
:102D100000010860BFF34F8F02B0704780B541F2E9
:102D20000001C4F20201086840F0010008600020C0
:102D300000F060F810B9FFE7FFE7FEE741F2040199
:102D4000C4F20201086820F003000860FFE741F2C6
:102D50000400C4F20200006810F00C0F01D0FFE77D
:102D6000F5E741F20001C4F2020108684FF6FF7274
:102D7000CFF6866210400860086820F48020086062
:102D800041F20401C4F202014FF40030086041F244
:102D90000801C4F202014FF47F00086041F22C01E7
:102DA000C4F202010020086041F23001C4F20201C5
:102DB000086080BD81B0ADF80000BDF8000080095A
:102DC00041F20001C4F202014058BDF8001001F0C8
:102DD0001F01C840C00720B1FFE701208DF80300A4
:102DE00003E000208DF80300FFE79DF8030001B029
:102DF0007047000080B58AB0ADF82600002008902A
:102E00008DF81F008DF81E00BDF8260001460691C2
:102E1000002861D0FFE7069810280FD0FFE706983A
:102E2000182800F0A880FFE70698B0F5006F2BD0B7
:102E3000FFE70698B0F5106F73D0C4E0FFE79DF888
:102E40001E100020059041B9FFE708984FF6FF716A
:102E5000401A18BF01200590FFE70598C00748B148
:102E6000FFE71120FFF7A6FF8DF81E00089801303C
:102E70000890E4E71120FFF79DFF20B1FFE7012054
:102E80008DF81F00FFE79FE0FFE79DF81E10002070
:102E9000049041B9FFE708986FF07C41401A18BFD1
:102EA00001200490FFE70498C00750B1FFE740F607
:102EB0000100FFF77FFF8DF81E0008980130089091
:102EC000E3E740F60100FFF775FF20B1FFE70120BF
:102ED0008DF81F00FFE777E0FFE79DF81E10002048
:102EE000039039B9FFE70898B0F5A06018BF01203A
:102EF0000390FFE70398C00748B1FFE70120FFF701
:102F000059FF8DF81E00089801300890E5E7012070
:102F1000FFF750FF20B1FFE701208DF81F00FFE70A
:102F200052E0FFE79DF81E100020029051B9FFE724
:102F300008984FF6FF71C0F20F01401A18BF012028
:102F40000290FFE70298C00750B1FFE740F601107A
:102F5000FFF730FF8DF81E00089801300890E1E778
:102F600040F60110FFF726FF20B1FFE701208DF8A2
:102F70001F00FFE728E0FFE79DF81E1000200190EA
:102F800051B9FFE708984FF6FF71C0F20F01401AE0
:102F900018BF01200190FFE70198C00748B1FFE783
:102FA0001920FFF707FF8DF81E00089801300890E0
:102FB000E2E71920FFF7FEFE20B1FFE701208DF8C0
:102FC0001F00FFE700E0FFE79DF81F000AB080BD8B
:102FD00081B0ADF80200BDF8020000F01F0201212F
:102FE00001FA02F3810941F20002C4F20202885898
:102FF0009843885001B0704781B0ADF80200BDF829
:10300000020000F01F02012101FA02F3810941F2DE
:103010000002C4F2020288581843885001B0704779
:1030200081B0ADF80200BDF8020000F01F020121DE
:1030300001FA02F3810941F20002C4F20202885847
:103040009843885001B0704781B0ADF80200BDF8D8
:10305000020000F01F02012101FA02F3810941F28E
:103060000002C4F2020288581843885001B0704729
:1030700084B000200390029041F20001C4F20201EA
:10308000086840F001000860FFE7039801300390F2
:1030900041F20000C4F20200006800F00200029059
:1030A000FFE702990020019039B9FFE70398B0F5D6
:1030B000A06018BF01200190FFE70198C007002819
:1030C000E3D1FFE741F20000C4F20200006880078C
:1030D000002802D4FFE7FFE7FEE742F20001C4F256
:1030E00002010868032262F30200086041F21C0139
:1030F000C4F20201086840F08050086041F2040107
:10310000C4F2020100910868086008680860086855
:1031100040F48060086008684FF6FF72CFF2C37217
:1031200010400860086840F00260086041F2000149
:10313000C4F20201086840F080700860FFE741F2C5
:103140000000C4F2020000688001002801D4FFE7FB
:10315000F5E741F20401C4F20201086820F003001F
:103160000860086840F002000860FFE741F20400D0
:10317000C4F20200006800F00C00082801D0FFE74C
:10318000F4E704B07047000080B5FFF771FF80BD21
:1031900080B540F20400C2F20000006844F6D3514A
:1031A000C1F26201A0FB01108009FDF76DFD10B1B5
:1031B000FFE7FFE7FEE74FF0FF300021FEF710FCCE
:1031C00080BD000080B58AB0099009980890B0F1E0
:1031D000804F39D0FFE7089841F20001C4F20001A6
:1031E00088423AD0FFE7089841F20041C4F200015A
:1031F00088423BD0FFE7089842F60041C4F2010143
:10320000884218D0FFE7089843F20041C4F2010158
:10321000884234D0FFE7089845F20001C4F201016A
:10322000884235D0FFE7089845F20041C4F2010119
:10323000884236D03EE040F20B300790FFF704FFA3
:103240000798FFF7EDFE36E04FF480600690FFF739
:10325000FBFE0698FFF7E4FE2DE040F204400590E7
:10326000FFF7F2FE0598FFF7DBFE24E040F2054091
:103270000490FFF7E9FE0498FFF7D2FE1BE040F24E
:103280000D300390FFF7E0FE0398FFF7C9FE12E050
:103290004FF445700290FFF7D7FE0298FFF7C0FE8B
:1032A00009E040F215300190FFF7CEFE0198FFF7DC
:1032B000B7FE00E0FFE70AB080BD000081B00090DB
:1032C0000099086840F00100086001B070470000F4
:1032D00082B001900091009800880199886201985D
:1032E00042F60041C4F2010188421DD0FFE7019877
:1032F000B0F1804F18D0FFE7019843F20041C4F2CB
:103300000101884210D0FFE7019845F20001C4F2A4
:103310000101884208D0FFE7019845F20041C4F25C
:103320000101884216D1FFE70199086820F070007A
:1033300008600098408800F0600201990868104316
:1033400008600098808800F0100201990868104316
:103350000860FFE7009880680199C862019841F20F
:103360000001C4F20001884216D0FFE7019841F243
:103370000041C4F2000188420ED0FFE701990868BD
:1033800020F4407008600098808900F44072019930
:10339000086810430860FFE7019842F60041C4F254
:1033A0000101884218D0FFE7019843F20041C4F2BE
:1033B0000101884210D0FFE7019845F20001C4F2F4
:1033C0000101884208D0FFE7019845F20041C4F2AC
:1033D0000101884205D1FFE70098807B01990863CD
:1033E000FFE70199486940F00100486102B0704769
:1033F00082B001900091009A0199C8681043C8609A
:1034000002B0704782B001900091009A019908695A
:103410009043086102B0704784B002900191029815
:10342000C06801990840009002980069019908421B
:1034300007D0FFE7009820B1FFE701208DF80F00CB
:1034400003E000208DF80F00FFE79DF80F0004B0A7
:103450007047000081B0009000990020088000991A
:10346000488000998880009A4FF6FF71916000991A
:1034700088810099887301B0704702E008C8121F64
:1034800008C1002AFAD170477047002001E001C14D
:10349000121F002AFBD170475A05070231019A5AC0
:1034A0000507043103A55A9D5A0507043104C33C9E
:1034B0009E5A050B06B00101000000225A050B06BA
:1034C000B00102000000235A050B06B00103000002
:1034D00000245A050B06B00105000000265A060715
:1034E0000231019B5A06070231039D5A0607023139
:1034F000049E5A060B06B00201010000255A060B75
:1035000006B00201020000265A060B06B0020103B3
:103510000000275A060B06B00201040000285A06D4
:103520000B06B00301000000255A060B06B003FF8E
:10353000000000235A060B06B00201050000290016
:103540006035000800000020500100002C02000837
:103550008035000850010020B00800008A340008BF
:1035600009340050000800E1F50504FD112233B2D2
:103570001458C4030800C003080000000000000045
:040000050800015D91
:00000001FF
