:020000040800F2
:10000000000A00207101000879160008F1080008B4
:100010009F010008A1010008A301000800000000E2
:100020000000000000000000000000008116000831
:10003000A7010008000000007D1600082D17000829
:10004000AD010008AD01000800000000AD0100088E
:10005000AD010008AD010008AD010008AD010008C8
:10006000AD010008AD010008AD010008AD010008B8
:10007000AD010008AD010008AD010008AD010008A8
:10008000AD010008AD010008AD010008AD01000898
:10009000AD010008AD010008AD010008AD01000888
:1000A000AD010008AD010008AD010008AD01000878
:1000B00081180008AD010008AD010008590A0008C8
:1000C000F5080008F10D00088D0C0008AD010008CE
:1000D000AD010008AD010008AD010008AD01000848
:1000E000AD010008AD010008AD010008AD01000838
:1000F000AD010008AD010008AD010008AD01000828
:10010000AD010008AD01000800000000AD010008CD
:100110000000000000000000AD010008AD01000873
:10012000AD010008AD010008AD010008AD010008F7
:10013000AD01000800000000AD010008AD0100089D
:10014000AD010008AD010008AD010008AD010008D7
:10015000AD010008AD010008AD010008DFF80CD0CA
:1001600000F052FA00480047BD340008000A0020A1
:100170000F4802680F4802EA00024FEA12424FEAB3
:1001800082224FF000514FF0000001C1121F002ADF
:10019000FBD10948804709480047FEE7FEE7FEE734
:1001A000FEE7FEE7FEE7FEE7FEE7FEE7FEE700000C
:1001B000E0F7FF1F0000FFFF351700085D01000892
:1001C00040EA01039B0703D009E008C9121F08C0D9
:1001D000042AFAD203E011F8013B00F8013B521E59
:1001E000F9D27047D2B201E000F8012B491EFBD2D0
:1001F00070470022F6E710B513460A460446194632
:10020000FFF7F0FF204610BD30B50B460146002039
:100210002022012409E021FA02F59D4205D303FAC8
:1002200002F5491B04FA02F52844151EA2F1010249
:10023000F1DC30BD2DE9F05F0546002092469B467B
:1002400088460646814640241BE0284641464746EC
:10025000224600F0FAF953465A46C01A914110D38B
:1002600011461846224600F0E1F92D1A67EB010805
:100270004F4622460120002100F0D8F917EB000973
:100280004E41201EA4F10104DFDC484631462A46D7
:100290004346BDE8F09F2DE9FE4F804681EA03000A
:1002A000C00F0C46009021F0004123F00045B8EB50
:1002B0000200A94105D24046214690461C460B4605
:1002C000024623F00040104347D0270DC7F30A0031
:1002D000C3F30A510290401A019040286BDAC3F32D
:1002E000130040F4801B0098924620B10023D2EB0B
:1002F000030A63EB0B0B01985946C0F140025046CC
:1003000000F094F906460D4650465946019A00F011
:10031000ACF910EB08006141002487EA115284EA2D
:10032000E7731A4340D0009A62B3019A012A4FEA58
:10033000075215DC001B61EB02014FF0004202EA9C
:100340000752CDE90042001C41F5801132462B4690
:1003500000F0ACF903B0BDE8F08F40462146F9E764
:10036000001B61EB0201001C41F5801300185B418A
:100370002018A2F5001747EB030140EAD570B61923
:100380006D4111E06D084FEA360645EAC0754FEA47
:100390000752001B61EB0201001C41F58011490866
:1003A0004FEA30000019514132462B4603B0BDE8F8
:1003B000F04F00F06CB90098012240000023D0EB10
:1003C000020263EBE073009821464FEAE074B8EB59
:1003D000000061EB0401E9E783F000435BE781F093
:1003E000004158E72DE9FE4F81EA030404F0004480
:1003F00021F0004100944FF0000B23F0004350EA3D
:1004000001045ED052EA03045BD0C3F30A54C1F383
:100410000A552C44A4F2F3340194A0FB0254C1F316
:10042000130141F48011C3F3130343F4801301FB60
:10043000024400FB034E840A970A44EA815447EAC7
:100440008357A4FB076802958D0A05FB07854FEAD1
:10045000932C04FB0C542705029D4FEA065847EAEB
:100460001637B5EB08056EEB070C870E920E47EAC0
:10047000811742EA8312A7FB0201B6EB0B0164EB82
:1004800000042B0D43EA0C335E1844EB1C50DA4693
:100490005146E7FB0201C5F313044FEA0B3343EA6D
:1004A00014534FEA0432019C43EA0603A4F10C04FE
:1004B0000294009CCDE900B400F0F8F803B0BDE868
:1004C000F08F00200146F9E72DE9F04D81EA0304A1
:1004D00004F0004B21F0004514464FF0000A23F0D1
:1004E000004150EA050220D054EA01021DD0C5F3B4
:1004F0000A570246C5F31303C1F31300C1F30A56AA
:1005000040F4801543F48013A7EB0608101BD64671
:1005100008F2FD3873EB050002D308F1010801E091
:1005200092185B41B8F1000F03DA00200146BDE8E4
:10053000F08D00204FF48011064684460EE0171B14
:1005400073EB050705D3121B63EB050306434CEA67
:10055000010C49084FEA300092185B4150EA01074C
:10056000EDD152EA030012D082EA040083EA0501C9
:10057000084305D0101BAB4106D20122002306E040
:1005800000224FF0004302E06FF0010253101AEB1B
:1005900006004CEB085110EB0A0041EB0B01BDE8E3
:1005A000F04D00F074B8C1F30A52C1F3130140F2E8
:1005B000FF3341F480119A4202DA0020014670476D
:1005C00040F233439A42A2F2334202DC524200F03C
:1005D0003CB800F02BB8000030B5041E71F10004E7
:1005E00004DB4FF00044404264EB0101141E73F140
:1005F000000405DB1C464FF00043524263EB04034A
:10060000994208BF904230BD064C074D06E0E068B5
:1006100040F0010394E8070098471034AC42F6D349
:10062000FFF7A0FD7C4900089C490008202A04DB54
:10063000203A00FA02F1002070479140C2F12003F5
:1006400020FA03F3194390407047202A04DB203A34
:1006500021FA02F00021704721FA02F3D040C2F1E2
:1006600020029140084319467047202A06DBCB1729
:10067000203A41FA02F043EAE07306E041FA02F35D
:10068000D040C2F12002914008431946704710B58E
:10069000141E73F1000408DA401C41F100019218A5
:1006A0005B411A4301D120F0010010BD2DE9F04D4E
:1006B00092469B4611B1B1FA81F202E0B0FA80F2A3
:1006C00020329046FFF7B2FF04460F4640EA0A0088
:1006D00041EA0B0153465A46084313D0114653EAE8
:1006E000010019D0C8F140025046FFF7AEFF0546A1
:1006F0000E46504659464246FFF798FF084305D03C
:10070000012004E020463946BDE8F08D0020054375
:1007100046EAE0762C4337430A986305E40AA0EBE7
:1007200008000022FD0A44EA47540A3002D500209E
:100730000146E9E7010510196941DDE9084500199D
:100740006941BDE8F04DA2E730B58C1810F8012BD7
:1007500012F00F0301D110F8013B120906D110F875
:10076000012B03E010F8015B01F8015B5B1EF9D17E
:1007700001E001F8013B521EFBD1A142E6D300206B
:1007800030BD000084B00390029140F26811C2F2C3
:100790000001312081F88900FFE740F26810C2F2C1
:1007A000000090F889100020002900900DD4FFE788
:1007B000039840F26811C2F2000191F88910405C80
:1007C000B0FA80F040090090FFE70098C00750B1F0
:1007D000FFE740F26811C2F2000191F88900013888
:1007E00081F88900D9E700208DF8070007208DF8EF
:1007F0000700FFE79DF8070040F26811C2F2000110
:1008000091F889100139884213DCFFE703989DF8BD
:100810000710435C02990A684868D21840F100004A
:100820000A604860FFE79DF8070001308DF8070077
:10083000E0E704B07047000085B004900391029295
:1008400040F26811C2F20001312081F88900FFE70F
:1008500040F26810C2F2000090F8891000200029D0
:1008600000900DD4FFE7049840F26811C2F2000135
:1008700091F88910405CB0FA80F040090090FFE7E1
:100880000098C00750B1FFE740F26811C2F20001C2
:1008900091F88900013881F88900D9E700208DF8A6
:1008A000070002208DF80700FFE79DF8070040F2DF
:1008B0006811C2F2000191F88910013988420FDCF9
:1008C000FFE704989DF80710425C039908681044FC
:1008D0000860FFE79DF8070001308DF80700E4E7A6
:1008E00003980068C0430299087005B07047000083
:1008F000FFE7FEE780B545F60000C4F200000721DF
:10090000C0F2086102F026FD50B1FFE745F6000095
:10091000C4F200000721C0F2086102F00BFDFFE7FE
:1009200045F60000C4F200000721C0F2096102F0A0
:1009300011FD50B1FFE745F60000C4F200000721A9
:10094000C0F2096102F0F6FCFFE745F60000C4F2D0
:1009500000000721C0F20A6102F0FCFC50B1FFE781
:1009600045F60000C4F200000721C0F20A6102F05F
:10097000E1FCFFE745F60000C4F200000721C0F2E9
:100980000B6102F0E7FC50B1FFE745F60000C4F24E
:1009900000000721C0F20B6102F0CCFCFFE745F636
:1009A0000000C4F200000721C0F20C6102F0D2FC8A
:1009B00050B1FFE745F60000C4F200000721C0F285
:1009C0000C6102F0B7FCFFE745F60000C4F200003E
:1009D0000721C0F20D6102F0BDFC50B1FFE745F602
:1009E0000000C4F200000721C0F20D6102F0A2FC79
:1009F0001DE045F60000C4F200000421C0F20461CD
:100A000002F0A8FC90B1FFE745F60000C4F2000038
:100A10000421C0F2046102F08DFC40F20801C2F230
:100A20000001087840F002000870FFE7FFE740F29D
:100A30000801C2F200010020A1F838010A7802F092
:100A4000FE020A70A1F83201A1F83601087800F020
:100A5000FD00087080BD000080B582B045F6000042
:100A6000C4F200000321C0F2036102F073FCE0B3A2
:100A7000FFE745F60000C4F200004FF4803102F0B9
:100A800039FC024640F20800C2F20000017802F090
:100A9000010201F0FB0141EA820101700078800847
:100AA000C00740B9FFE740F20801C2F20001002090
:100AB000A1F838010FE045F61801C4F200010868FA
:100AC00040F00100086040F20801C2F2000100207D
:100AD000A1F83601FFE745F60000C4F2000003214B
:100AE000C0F2036102F026FCCDE045F60000C4F23E
:100AF00000000221C0F2026102F02CFC00283ED06E
:100B0000FFE740F20040C4F600004FF4804102F0DD
:100B100079FA40F20800C2F20000B0F8380131283A
:100B200025DCFFE745F60000C4F2000002F092FB6E
:100B3000014640F20800C2F20000B0F83831421C11
:100B4000D1544078FE2808D0FFE740F20801C2F2F5
:100B500000010020A1F83201FFE740F20801C2F2D3
:100B60000001B1F838010130A1F8380106E045F67E
:100B70000000C4F2000002F06DFBFFE782E045F6E2
:100B80000000C4F200000121C0F2016102F0E2FBAA
:100B900058B3FFE740F20801C2F20001B1F8360194
:100BA000B1F83211884217DAFFE740F20800C2F2CA
:100BB00000000190B0F83611084490F8331045F663
:100BC0000000C4F2000002F04DFB0199B1F83601BB
:100BD0000130A1F8360107E045F60000C4F200003C
:100BE000FF2102F03FFBFFE74BE045F60000C4F2B7
:100BF00000000521C0F2056102F0ACFB50B3FFE735
:100C000045F60000C4F200000521C0F2056102F0C3
:100C100091FB40F20800C2F2000000788008C00793
:100C200048B9FFE740F20801C2F20001087840F03D
:100C3000010008700DE040F20801C2F200010878DE
:100C400040F0020008700020A1F83201A1F836013E
:100C5000FFE715E045F60000C4F200000421C0F2F1
:100C6000046102F077FB50B1FFE745F60000C4F2E3
:100C700000000421C0F2046102F05CFBFFE7FFE723
:100C8000FFE7FFE7FFE702B080BD000080B545F653
:100C90000000C4F200000721C0F2086102F05AFB14
:100CA00050B1FFE745F60000C4F200000721C0F292
:100CB000086102F03FFBFFE745F60000C4F20000C8
:100CC0000721C0F2096102F045FB50B1FFE745F68C
:100CD0000000C4F200000721C0F2096102F02AFB03
:100CE000FFE745F60000C4F200000721C0F20A61E8
:100CF00002F030FB50B1FFE745F60000C4F20000FF
:100D00000721C0F20A6102F015FBFFE745F600007B
:100D1000C4F200000721C0F20B6102F01BFB50B1CE
:100D2000FFE745F60000C4F200000721C0F20B61A6
:100D300002F000FBFFE745F60000C4F200000721C7
:100D4000C0F20C6102F006FB50B1FFE745F600006F
:100D5000C4F200000721C0F20C6102F0EBFAFFE7D9
:100D600045F60000C4F200000721C0F20D6102F058
:100D7000F1FA50B1FFE745F60000C4F20000072188
:100D8000C0F20D6102F0D6FA1DE045F60000C4F293
:100D900000000421C0F2046102F0DCFA90B1FFE728
:100DA00045F60000C4F200000421C0F2046102F024
:100DB000C1FA40F20801C2F20001087840F00200D6
:100DC0000870FFE7FFE740F20801C2F200010020CF
:100DD000A1F838010A7802F0FE020A70A1F8320187
:100DE000A1F83601087800F0FD00087080BD000011
:100DF00080B582B045F60000C4F200000321C0F2C5
:100E0000036102F0A7FAE0B3FFE745F60000C4F281
:100E100000004FF4803102F06DFA024640F2080003
:100E2000C2F20000017802F0010201F0FB0141EA88
:100E30008201017000788008C00740B9FFE740F2E6
:100E40000801C2F200010020A1F838010FE045F6C8
:100E50001801C4F20001086840F00100086040F287
:100E60000801C2F200010020A1F83601FFE745F6B3
:100E70000000C4F200000321C0F2036102F05AFA3C
:100E8000CDE045F60000C4F200000221C0F202618C
:100E900002F060FA00283ED0FFE740F20040C4F6BE
:100EA00000004FF4804102F0ADF840F20800C2F2B9
:100EB0000000B0F83801312825DCFFE745F60000D6
:100EC000C4F2000002F0C6F9014640F20800C2F286
:100ED0000000B0F83831421CD1544078FE2808D0C8
:100EE000FFE740F20801C2F200010020A1F8320140
:100EF000FFE740F20801C2F20001B1F83801013009
:100F0000A1F8380106E045F60000C4F2000002F046
:100F1000A1F9FFE782E045F60000C4F200000121DC
:100F2000C0F2016102F016FA58B3FFE740F208017F
:100F3000C2F20001B1F83601B1F83211884217DA75
:100F4000FFE740F20800C2F200000190B0F836114D
:100F5000084490F8331045F60000C4F2000002F097
:100F600081F90199B1F836010130A1F8360107E0A5
:100F700045F60000C4F20000FF2102F073F9FFE71C
:100F80004BE045F60000C4F200000521C0F2056107
:100F900002F0E0F950B3FFE745F60000C4F20000AC
:100FA0000521C0F2056102F0C5F940F20800C2F265
:100FB000000000788008C00748B9FFE740F2080148
:100FC000C2F20001087840F0010008700DE040F224
:100FD0000801C2F20001087840F002000870002009
:100FE000A1F83201A1F83601FFE715E045F600004F
:100FF000C4F200000421C0F2046102F0ABF950B168
:10100000FFE745F60000C4F200000421C0F20461CD
:1010100002F090F9FFE7FFE7FFE7FFE7FFE702B025
:1010200080BD000080B586B040F22841C4F60001C2
:10103000086840F080000860086840F4807008602C
:1010400000F03AF800BF00BF00BF00BF00BF40F291
:101050001841C4F60001086840F08000086000BF35
:1010600000BF00BF00BF00BF086840F48070086088
:1010700040F20040C4F600000290022101910122DA
:1010800003928023009302F02FF8009B02980399AB
:101090000322049202F076F801990298039A4FF421
:1010A0008073059302F020F802980399049A059B37
:1010B00002F068F806B080BD80B586B040F200400E
:1010C000C4F60000029001210191002203928023C6
:1010D000009302F009F8009B0298039903220492FE
:1010E00002F050F801990298039A4FF48073059327
:1010F00001F0FAFF02980399049A059B02F042F866
:1011000006B080BD80B584B040F20040C4F6000057
:10111000039005214FF4C072029201F001FF029B7F
:10112000039802210122019201F0DEFF0199029B46
:101130000398032202F026F8039800228023114628
:1011400001F0D2FF04B080BD80B582B045F600004A
:10115000C4F2000001904FF4AA61C022002302F003
:101160006FF9019842F6B031E02202F03FF90198A0
:1011700002F0ACF802B080BD80B584B045F6000046
:10118000C4F200000190052200230293194602F0E8
:1011900057F901981D21592202F028F90198029A65
:1011A000342102F039F8019802F090F80198BE213C
:1011B00002F0B6F802991F200122039202F048FAC9
:1011C0000299039A202002F043FA0299039A2120FF
:1011D00002F03EFA0299039A222002F039FA04B092
:1011E00080BD000080B58CB08DF82E00ADF82C10BD
:1011F0000A928DF8273000208DF82600ADF82400E3
:101200008DF82300FFE79DF82300002840F0A88117
:10121000FFE79DF8260001460791092800F290811A
:101220000799DFE811F00A006A00AE008D018D0118
:101230008D01F2008D018D0147019DF82E1045F6BC
:101240000000C4F200000690002202F0B3F80698F5
:101250009DF82710013102F021F9069845F6180291
:10126000C4F20002116841F00101116001F0E8FFD1
:10127000FFE745F60000C4F200004FF4004102F021
:1012800039F801460020059051B1FFE7BDF8241060
:1012900044F620620020914238BF01200590FFE70C
:1012A0000598C00730B1FFE7BDF824000130ADF864
:1012B0002400DEE7BDF8240044F61F6188420DD803
:1012C000FFE745F60000C4F2000002F0AFF800208E
:1012D000ADF8240001208DF826000DE0FFF7A2FEF6
:1012E0000020ADF824008DF8260044F65910C0F611
:1012F000000002F0FBFDFFE731E1FFE745F60000EB
:10130000C4F20000012101F0F5FF01460020049025
:1013100051B9FFE7BDF8241044F620620020914245
:1013200038BF01200490FFE70498C00730B1FFE701
:10133000BDF824000130ADF82400DFE7BDF824003B
:1013400044F61F6188420FD8FFE79DF82D1045F63F
:101350000000C4F2000001F085FF0020ADF8240079
:1013600002208DF826000BE00020ADF824008DF857
:10137000260044F62810C0F6000002F0B7FDFFE793
:10138000EDE0FFE745F60000C4F20000012101F0A6
:10139000B1FF01460020039051B9FFE7BDF82410CA
:1013A00044F620620020914238BF01200390FFE7FD
:1013B0000398C00730B1FFE7BDF824000130ADF855
:1013C0002400DFE7BDF8240044F61F6188420FD8EF
:1013D000FFE79DF82C1045F60000C4F2000001F074
:1013E00041FF0020ADF8240006208DF826000BE018
:1013F0000020ADF824008DF8260044F62810C0F631
:10140000000002F073FDFFE7A9E0FFE79DF8270069
:10141000411E8DF8271000284BD0FFE7FFE745F667
:101420000000C4F20000022101F064FF0146002028
:10143000029051B9FFE7BDF8241044F62062002065
:10144000914238BF01200290FFE70298C00730B1F7
:10145000FFE7BDF824000130ADF82400DFE7BDF858
:10146000240044F61F61884212D8FFE70A980178E9
:1014700045F60000C4F2000001F0F4FE0A980130C5
:101480000A900020ADF8240009208DF826000FE016
:1014900000200190ADF824008DF8260044F6C50028
:1014A000C0F6000002F022FD01988DF82F005BE0ED
:1014B000ACE754E0FFE745F60000C4F2000020214D
:1014C00001F018FF01460020009051B9FFE7BDF878
:1014D000241044F620620020914238BF0120009081
:1014E000FFE70098C00730B1FFE7BDF824000130E6
:1014F000ADF82400DFE7BDF8240044F61F61884200
:1015000011D8FFE745F60000C4F20000202101F0E9
:10151000E7FE0020ADF824000A208DF82600012007
:101520008DF823000BE00020ADF824008DF8260094
:1015300044F6F300C0F6000002F0D8FCFFE70EE02E
:1015400000208DF8260001218DF82310ADF824002D
:1015500044F69700C0F6000002F0C8FCFFE752E630
:1015600001208DF82F00FFE79DF82F000CB080BD03
:1015700080B588B0002003908DF81F0003208DF8FF
:101580001F00902006904FF406710DF11F02049287
:1015900002230593FFF726FE0120019001F0B6F823
:1015A0000698049A059B28218DF81F1040F21921F6
:1015B000FFF718FE019801F0A9F80698049A059B18
:1015C000082102918DF81F1040F21A21FFF70AFE40
:1015D000019801F09BF80698049A059B4F218DF81D
:1015E0001F104FF4E771FFF7FDFD0299049A059B68
:1015F00006988DF81F1040F2CF11FFF7F3FD039905
:10160000049A059B06988DF81F105021FFF7EAFDFC
:101610000399049A059B06988DF81F104FF4E87102
:10162000FFF7E0FD049A059B069811218DF81F1025
:1016300040F2D111FFF7D6FD049A059B06982221AE
:101640008DF81F104FF4E971FFF7CCFD049A059B4C
:10165000069833218DF81F1040F2D311FFF7C2FD19
:10166000049A059B069844218DF81F104FF4EA71E7
:10167000FFF7B8FD08B080BD70470000704700005C
:101680007047000080B586B040F26810C2F20000DA
:1016900000904FF0FF320292C0F84E20C0F84A206E
:1016A000C0F84620C0F84220C0F83E20C0F83A20DA
:1016B000C0F83620014641F8322F019101F0DAFBE3
:1016C000009901985831039101F080FB009B019A29
:1016D00002980399C3F84E00C3F84A00C3F84600C5
:1016E000C3F84200C3F83E00C3F83A00C3F836001E
:1016F000106040F20400C2F200000490006801F0A3
:10170000BDFA03990498006801F0E2FA04990028F0
:1017100018BF01208DF817000868203008609DF878
:10172000170000F0010006B080BD000080B501F098
:1017300001F880BD80B54EF68851CEF200010868F0
:1017400040F47000086041F20001C4F20201086830
:1017500040F00100086041F20402C4F20202106885
:1017600020F00300106008684FF6FF73CFF6866321
:101770001840086041F20803C4F202034FF47F00EE
:1017800018604FF40030106041F22C02C4F20202E3
:1017900000201060086820F48020086002F046FAFB
:1017A00041F21C00C4F202000068C000002838D4D6
:1017B000FFE741F21C01C4F20201086840F08050CA
:1017C000086047F20000C4F200000068C00500286D
:1017D00015D4FFE747F20001C4F20001086840F4A5
:1017E0008070086041F22002C4F20202106840F0EA
:1017F00004001060086820F48070086008E041F27E
:101800002001C4F20201086840F004000860FFE70C
:1018100041F21C01C4F20201086820F08050086007
:1018200027E047F20000C4F200000068C00500286D
:1018300015D4FFE747F20001C4F20001086840F444
:101840008070086041F22002C4F20202106840F089
:1018500004001060086820F48070086008E041F21D
:101860002001C4F20201086840F004000860FFE7AC
:10187000FFE74FF00060002101F08EFF80BD000007
:1018800080B54FF08040012102F0FEFA012847D1D7
:10189000FFE74FF08040012102F0ECFA40F25A10CD
:1018A000C2F200000088012808DBFFE740F25A116D
:1018B000C2F2000108880138088007E040F25A119E
:1018C000C2F2000142F210700880FFE740F25A10A5
:1018D000C2F200004088012808DBFFE740F25A11FD
:1018E000C2F20001488801384880FFE740F25A10F0
:1018F000C2F200000079012808DBFFE740F25A112C
:10190000C2F2000108790138087108E040F2004095
:10191000C4F600004FF4804101F074FBFFE7FFE7DD
:1019200080BD000080B588B04FF4E06002F0B6F8EA
:101930004FF08040029002F07DF904A8019002F07F
:10194000C1FA0199029842F20F72ADF810200022FC
:101950000392ADF81220ADF8142009230693ADF8D8
:101960001C2002F0EDF90298012102F079FA0298A8
:1019700002F0DCF9039A1C20114601F069FE08B060
:1019800080BD000080B58EB040F25810C2F2000059
:10199000007801460A910E2800F2EE840A99DFE8E9
:1019A00011F00F0022006500AA0002019B02E20272
:1019B000F10211015D02AA0200030B045F04CF04CF
:1019C00040F25010C2F20000026843684CF200007E
:1019D000C0F6030001F0B2F940F25811C2F2000162
:1019E00001200870FFE740F25A10C2F200000088A0
:1019F000012838DBFFE740F20800C2F200000130A6
:101A000044F2F071C0F60001072200F011FD38B376
:101A1000FFE744F63501C0F600010868D1F803205D
:101A200040F20801C2F20001C1F83620C1F83300CB
:101A30000720A1F8320140F20040C4F600004FF444
:101A4000804101F0D7FA40F25A11C2F2000164203D
:101A5000087140F25811C2F200010220087001E042
:101A600000F08BBC01E000F088BCFFE740F25A10A8
:101A7000C2F20000008801283ADBFFE740F20800CC
:101A8000C2F20000013044F2F071C0F600010731EB
:101A9000092200F0CDFC40B3FFE744F63501C0F663
:101AA0000001D1F80700D1F80A2040F20801C2F283
:101AB0000001C1F83620C1F833000720A1F8320137
:101AC00040F20040C4F600004FF4804101F092FA69
:101AD00040F25A11C2F200016420087140F258111C
:101AE000C2F200010320087001E000F046BC01E0F2
:101AF00000F043BCFFE740F25A10C2F20000008839
:101B000001284EDBFFE740F20800C2F2000001307E
:101B100044F2F071C0F600011031092200F088FC97
:101B2000E8B3FFE744F63501C0F60001D1F80E0036
:101B3000D1F8112040F20801C2F20001C1F83620AC
:101B4000C1F833000720A1F8320140F20040C4F68A
:101B500000004FF4804101F04DFA40F25A11C2F2F8
:101B6000000109916420087140F25010C2F2000097
:101B70000021416001210160026843684CF20000CD
:101B8000C0F6030001F0DAF809994FF4FA604880D2
:101B900040F25811C2F200010420087000E0ECE3AA
:101BA00000E0EAE3FFE740F25A10C2F2000040888A
:101BB00038B9FFE740F25811C2F20001082008705E
:101BC000DBE3DAE340F25A10C2F200000088012899
:101BD000C0F24381FFE740F20800C2F2000001308A
:101BE00044F2F071C0F6000119310B2200F020FC24
:101BF000002800F03181FFE740F24810C2F20000F7
:101C0000016808684968013861F1000102460892DC
:101C1000D0F105004FF000008841C0F01B81089909
:101C2000DFE801F0032E5885B1DD44F63501C0F63A
:101C30000001D1F81500D1F81920CB6940F2080154
:101C4000C2F20001C1F83A30C1F83720C1F83300C0
:101C50000B20A1F8320140F20040C4F600004FF41E
:101C6000804101F0C7F940F25A11C2F2000164202C
:101C7000087140F25811C2F2000109200870EAE030
:101C800044F63501C0F60001086A4A6AD1F82730E7
:101C900040F20801C2F20001C1F83A30C1F8372021
:101CA000C1F833000B20A1F8320140F20040C4F625
:101CB00000004FF4804101F09DF940F25A11C2F248
:101CC00000016420087140F25811C2F200010A209C
:101CD0000870C0E044F63501C0F60001D1F82B00D1
:101CE000D1F82F20D1F8323040F20801C2F20001C1
:101CF000C1F83A30C1F83720C1F833000B20079003
:101D0000A1F8320140F20040C4F600004FF48041D7
:101D100001F070F9079840F25A12C2F200026421F1
:101D2000117140F25811C2F20001087093E044F6BC
:101D30003501C0F60001D1F82B00D1F82F20D1F8E1
:101D4000323040F20801C2F20001C1F83A30C1F865
:101D50003720C1F833000B20A1F8320140F20040D7
:101D6000C4F600004FF4804101F044F940F25A11EA
:101D7000C2F200016420087140F25811C2F2000161
:101D80000C20087067E044F63501C0F60001D1F878
:101D90003600D1F83A20D1F83D3040F20801C2F2C5
:101DA0000001C1F83A30C1F83720C1F833000B20E8
:101DB000A1F8320140F20040C4F600004FF4804127
:101DC00001F018F940F25A11C2F2000164200871C2
:101DD00040F25811C2F200010D2008703BE040F2C1
:101DE0005010C2F2000000214160016002684368A7
:101DF0004CF20000C0F6030000F0A0FF44F63501ED
:101E0000C0F60001D1F85700D1F85B20D1F85E3060
:101E100040F20801C2F20001C1F83A30C1F837209F
:101E2000C1F833000B20A1F8320140F20040C4F6A3
:101E300000004FF4804101F0DDF840F25A11C2F287
:101E400000016420087140F25811C2F200010E2016
:101E5000087000E0FFE790E28FE28EE240F25A1055
:101E6000C2F200000088012835DBFFE740F20800DD
:101E7000C2F20000013044F2F071C0F600012431DA
:101E80000B2200F0D5FA28B3FFE745F20000C0F6B8
:101E900000006E2100F0F8FD40F25010C2F2000088
:101EA0000021416002210160026843684CF2000099
:101EB000C0F6030000F042FF40F25A11C2F20001E6
:101EC0004FF47A70488040F25811C2F200010520A8
:101ED000087052E251E250E240F25A10C2F20000A1
:101EE000408838B9FFE740F25811C2F200010820DB
:101EF000087042E241E240F25A10C2F2000000884B
:101F000001282EDBFFE740F20800C2F2000001309A
:101F100044F2F071C0F600012F310B2200F088FA74
:101F2000E8B1FFE740F25010C2F20000002141602A
:101F300003210160026843684CF20000C0F6030010
:101F400000F0FCFE40F25A11C2F200016420488009
:101F500040F25811C2F200010620087000E00CE2C5
:101F600000E00AE2FFE740F25A10C2F200004088A7
:101F700038B9FFE740F25811C2F20001082008709A
:101F8000FBE1FAE140F25A10C2F20000408838B991
:101F9000FFE740F25811C2F2000108200870ECE19E
:101FA000EBE140F25A10C2F2000000880128C0F2B2
:101FB0000281FFE740F20800C2F200000078C0078B
:101FC000002800F0F780FFE740F20801C2F20001AC
:101FD0000591087800F0FE00087040F26810C2F227
:101FE000000006903221FEF704F905990698B1F831
:101FF00038210131FEF7E4F8059A06980021A2F88D
:1020000038110078532840F0A480FFE740F26810B0
:10201000C2F200004078032840F09B80FFE740F2C6
:102020006810C2F20000049000F1840100F18802FF
:10203000FEF702FC049991F8880091F88920895CE8
:10204000884227D0FFE740F26811C2F20001002069
:10205000C1F8840081F888008DF82F00FFE79DF813
:102060002F0040F26811C2F2000191F889108842F5
:102070000FDCFFE79DF82F2040F26811C2F200014B
:1020800000208854FFE79DF82F0001308DF82F00C5
:10209000E5E772E140F26811C2F200010020C1F8E8
:1020A000840081F88800FFF7EDFA01282DD1FFE7C1
:1020B00040F26810C2F2000000F17801FEF762FB06
:1020C00044F63501C0F60001D1F84100D1F84520B1
:1020D0008B6C40F20801C2F20001C1F83A30C1F83D
:1020E0003720C1F833000B20A1F8320140F2004044
:1020F000C4F600004FF4804100F07CFF40F25A111A
:10210000C2F200016420087137E144F63501C0F6DF
:102110000001C86C0A6DD1F8533040F20801C2F2D8
:102120000001C1F83A30C1F83720C1F833000B2064
:10213000A1F8320140F20040C4F600004FF48041A3
:1021400000F058FF40F25A11C2F2000164200871F9
:1021500013E140F26810C2F20000007853281FD14A
:10216000FFE740F26810C2F200004078072817D15C
:10217000FFE740F26811C2F200010020C1F88400BC
:1021800081F8880040F25011C2F20001486004203A
:10219000086040F25811C2F200010C200870ECE017
:1021A00040F26811C2F200010020C1F8840081F8F9
:1021B0008800E2E0E1E0E0E040F25A10C2F2000004
:1021C000008801284BDBFFE740F20800C2F2000064
:1021D0000078C007002841D0FFE740F20800C2F2B3
:1021E00000000290017801F0FE010170B0F8382182
:1021F000411C40F26810C2F200000390FDF7E0FFBE
:10220000029A03990020A2F83801CA79087A40EAB4
:102210000220A1F88A00B1F87800A1F88000B1F896
:102220008000B1F88A10884217D1FFE740F25010C1
:10223000C2F200000021416005210160026843688C
:102240004CF20000C0F6030000F078FD40F2581197
:10225000C2F20001062008708FE08EE08DE0FFE7FB
:1022600040F25A10C2F200000088012867DBFFE745
:1022700040F20800C2F20000013044F2F071C0F6F2
:1022800000013A310B2200F0D3F8002856D0FFE7C6
:1022900040F25010C2F20000002101914160016043
:1022A000026843684CF20000C0F6030000F046FDEF
:1022B000019B4CF20040C0F603001A4600F03EFDC0
:1022C00040F25811C2F200010E20087040F2115085
:1022D00001F0D0FB40F2157001F0CCFB4FF4E06050
:1022E00001F0C8FB4FF0904000F094FE45F2004032
:1022F000C4F2000000F0C0FF4FF0804001F09AFCF3
:1023000001F05EFA45F20400C0F60000016840F2F8
:102310006010C2F200000160016840F26410C2F275
:102320000000016045F20001C0F6000109680C914F
:102330000C9981F30888006880471EE01DE01CE0CE
:1023400045F20400C0F60000016840F26010C2F2DD
:1023500000000160016840F26410C2F200000160F8
:1023600045F20001C0F6000109680D910D9981F355
:1023700008880068804700E0FFE70EB080BD0000DD
:1023800080B582B0FFE7FFF7FDFA00F079F840F280
:102390000800C2F20000013044F2F071C0F6000102
:1023A000072200F045F8C0B3FFE74CF20000C0F68A
:1023B0000300002301931A4600F0C0FC019B4CF27D
:1023C0000040C0F603001A4600F0B8FC44F63501A0
:1023D000C0F600010868D1F8032040F20801C2F2FB
:1023E0000001C1F83620C1F833000720A1F83201FE
:1023F00040F20040C4F600004FF4804100F0FAFDC6
:1024000040F25A11C2F200016420087140F25811E2
:10241000C2F200010220087008E0FFE740F2581005
:10242000C2F2000000780E28ADD1FFE702B080BDF7
:1024300085B0039002918DF8072000200090FFE7FF
:1024400000989DF80710884211DAFFE70398009A78
:10245000805C0299895C884204D0FFE700208DF8F7
:10246000130008E0FFE7009801300090E8E7012042
:102470008DF81300FFE79DF8130005B070470000CA
:1024800080B582B040F20800C2F20000013044F290
:10249000F071C0F6000119310B22FFF7C9FF0028C7
:1024A00000F03181FFE740F24810C2F200000168FD
:1024B00008684968013861F1000102460192D0F1D3
:1024C00005004FF000008841C0F01B810199DFE852
:1024D00001F0032E5885B1DD44F63501C0F6000148
:1024E000D1F81500D1F81920CB6940F20801C2F2E9
:1024F0000001C1F83A30C1F83720C1F833000B2091
:10250000A1F8320140F20040C4F600004FF48041CF
:1025100000F070FD40F25A11C2F20001642008710F
:1025200040F25811C2F2000109200870EAE044F6B6
:102530003501C0F60001086A4A6AD1F8273040F236
:102540000801C2F20001C1F83A30C1F83720C1F8E1
:1025500033000B20A1F8320140F20040C4F6000025
:102560004FF4804100F046FD40F25A11C2F20001E2
:102570006420087140F25811C2F200010A2008706C
:10258000C0E044F63501C0F60001D1F82B00D1F8C7
:102590002F20D1F8323040F20801C2F20001C1F818
:1025A0003A30C1F83720C1F833000B200090A1F871
:1025B000320140F20040C4F600004FF4804100F0C8
:1025C00019FD009840F25A12C2F200026421117102
:1025D00040F25811C2F20001087093E044F6350150
:1025E000C0F60001D1F82B00D1F82F20D1F83230FD
:1025F00040F20801C2F20001C1F83A30C1F83720B8
:10260000C1F833000B20A1F8320140F20040C4F6BB
:1026100000004FF4804100F0EDFC40F25A11C2F28C
:1026200000016420087140F25811C2F200010C2030
:10263000087067E044F63501C0F60001D1F83600B5
:10264000D1F83A20D1F83D3040F20801C2F2000141
:10265000C1F83A30C1F83720C1F833000B20A1F897
:10266000320140F20040C4F600004FF4804100F017
:10267000C1FC40F25A11C2F200016420087140F21C
:102680005811C2F200010D2008703BE040F25010DA
:10269000C2F20000002141600160026843684CF210
:1026A0000000C0F6030000F049FB44F63501C0F617
:1026B0000001D1F85700D1F85B20D1F85E3040F22C
:1026C0000801C2F20001C1F83A30C1F83720C1F860
:1026D00033000B20A1F8320140F20040C4F60000A4
:1026E0004FF4804100F086FC40F25A11C2F2000122
:1026F0006420087140F25811C2F200010E200870E7
:1027000000E0FFE7FFE702B080BD000081B000906D
:10271000009840F2F811C2F200010860FFE740F2B1
:10272000F810C2F20000006808B1FFE7F7E701B057
:102730007047000040F2F810C2F20000006840B19B
:10274000FFE740F2F811C2F20001086801380860A2
:10275000FFE7704780B584B0039001208DF80B002F
:10276000FFE700F025F88DF80B000398013803907F
:10277000FFE79DF80B1000200129019006D1FFE72B
:102780000398002818BF01200190FFE70198C007B7
:102790000028E6D1FFE79DF80B00012804D1FFE7F0
:1027A00006208DF80B00FFE79DF80B0004B080BDFC
:1027B00081B000208DF8030042F20C00C4F2020048
:1027C0000068C00720B1FFE701208DF8030054E046
:1027D00042F20C00C4F202000068C006002804D5D2
:1027E000FFE705208DF8030046E042F20C00C4F23A
:1027F000020000684007002804D5FFE703208DF899
:10280000030038E042F20C00C4F2020000688007C6
:10281000002804D5FFE702208DF803002AE042F2E9
:102820000C00C4F2020000680007002804D5FFE78E
:1028300004208DF803001CE042F20C00C4F20200F8
:1028400000684006002804D5FFE707208DF8030044
:102850000EE042F20C00C4F20200006800040028FE
:1028600004D5FFE708208DF8030000E0FFE7FFE74D
:10287000FFE7FFE7FFE7FFE7FFE79DF8030001B091
:102880007047000080B584B0039001208DF80B00E4
:10289000FFE700F025F88DF80B000398013803904E
:1028A000FFE79DF80B1000200129019006D1FFE7FA
:1028B0000398002818BF01200190FFE70198C00786
:1028C0000028E6D1FFE79DF80B00012804D1FFE7BF
:1028D00006208DF80B00FFE79DF80B0004B080BDCB
:1028E00081B000208DF8030042F24C00C4F20200D7
:1028F0000068C00720B1FFE701208DF8030054E015
:1029000042F24C00C4F202000068C006002804D560
:10291000FFE705208DF8030046E042F24C00C4F2C8
:10292000020000684007002804D5FFE703208DF867
:10293000030038E042F24C00C4F202000068800755
:10294000002804D5FFE702208DF803002AE042F2B8
:102950004C00C4F2020000680007002804D5FFE71D
:1029600004208DF803001CE042F24C00C4F2020087
:1029700000684006002804D5FFE707208DF8030013
:102980000EE042F24C00C4F202000068000400288D
:1029900004D5FFE708208DF8030000E0FFE7FFE71C
:1029A000FFE7FFE7FFE7FFE7FFE79DF8030001B060
:1029B0007047000080B58AB0099007930692099885
:1029C000B0F1006F32D3FFE709984FF6FF71C0F600
:1029D000030188422AD8FFE74FF47F00FFF7BAFED1
:1029E0008DF80F0006980590079804909DF80F0049
:1029F000D8B9FFE742F21001C4F20201029108685F
:102A000040F0010008600598099908600498099948
:102A100048604FF47F00FFF79DFE02998DF80F008C
:102A2000086820F001000860FFE729E04FF47F000C
:102A3000FFF728FF8DF80F0006980590079804907F
:102A40009DF80F00D8B9FFE742F25001C4F202012D
:102A50000191086840F00100086005980999086034
:102A60000498099948604FF47F00FFF70BFF019924
:102A70008DF80F00086820F001000860FFE7FFE70D
:102A80009DF80F000AB080BD80B584B0039002911C
:102A900000F06AF900F056F800208DF80700FFE713
:102AA0009DF807000299884210D2FFE703989DF82D
:102AB000071000EB812000F075F800F043F8FFE705
:102AC0009DF8070001308DF80700E9E700F058F89D
:102AD00004B080BD83B0ADF80A00BDF80A008009DB
:102AE0000190019804281DD1FFE7BDF80A00800974
:102AF00042F20002C4F2020280580090009820F0D6
:102B00006C400090BDF80A0000F01F01012000FA9F
:102B100001F10098084300900098BDF80A10890957
:102B200088500CE0BDF80A1001F01F02012090400F
:102B3000890942F20002C4F202028850FFE703B0A2
:102B40007047000080B540F20530FFF7C3FF4FF437
:102B50004170FFF7BFFF40F20330FFF7BBFF40F2C9
:102B60000230FFF7B7FF40F20130FFF7B3FF40F24A
:102B70000630FFF7AFFF40F20F30FFF7ABFF80BD2D
:102B800042F21001C4F20201086840F080000860BF
:102B900042F25001C4F20201086840F0800008606F
:102BA0007047000080B584B0039000208DF80B00C2
:102BB0000398B0F1006F32D3FFE703984FF6FF712F
:102BC000C0F6030188422AD8FFE74FF47F00FFF7E1
:102BD000C1FD8DF80B009DF80B00F8B9FFE742F23C
:102BE0001001C4F202010191086840F0020008607F
:102BF000039842F21402C4F202021060086840F026
:102C0000400008604FF47F00FFF7A4FD01998DF8A4
:102C10000B00086820F002000860FFE729E04FF48D
:102C20007F00FFF72FFE8DF80B009DF80B00F8B921
:102C3000FFE742F25001C4F202010091086840F03F
:102C400002000860039842F25402C4F202021060CB
:102C5000086840F0400008604FF47F00FFF712FE64
:102C600000998DF80B00086820F002000860FFE76B
:102C7000FFE79DF80B0004B080BD000080B584B074
:102C80000390029100F070F800208DF80700FFE734
:102C90009DF80700032815DCFFE70398029A9DF8CA
:102CA000073002EBC30152F833204B68FFF782FE76
:102CB000039808300390FFE79DF8070001308DF876
:102CC0000700E5E7FFF73EFFFFF75AFF04B080BDBE
:102CD00085B0039002910398019000208DF80300C5
:102CE000FFE79DF8030003281FDCFFE70199086850
:102CF0004968029B9DF803C003EBCC02526853F86D
:102D00003C3058405140084320B1FFE700208DF887
:102D100013000EE0019808300190FFE7FFE79DF8EF
:102D2000030001308DF80300DBE701208DF813006C
:102D3000FFE79DF8130005B07047000080B584B030
:102D400003900193009203980121FFF79DFE00F08C
:102D50000BF80398009A019BFFF72CFEFFF7F2FE99
:102D6000FFF70EFF04B080BD42F21000C4F2020073
:102D70000068000600280FD5FFE742F20801C4F200
:102D8000020140F22310C4F26750086048F6AB100D
:102D9000CCF6EF500860FFE742F25000C4F20200A8
:102DA0000068000600280FD5FFE742F24801C4F290
:102DB000020140F22310C4F26750086048F6AB10DD
:102DC000CCF6EF500860FFE77047000080B588B090
:102DD0000790069100200590FFE70598032847DC3F
:102DE000FFE70020039002900190FFE70198072879
:102DF0002FDCFFE70599019800EBC10000900098D7
:102E00001F2821DCFFE707980099415CDDF804E00A
:102E10004FEACE026FF01F0000EBCE0001FA00FC7B
:102E20002023A3EBCE0321FA03F3002858BF634607
:102E300001FA02F2002858BF0022029803991943B0
:102E4000104303910290FFE7FFE7019801300190E2
:102E5000CCE7029A0398069BDDF814C003EBCC0183
:102E600043F83C204860FFE7059801300590B4E73F
:102E700008B080BD83B0029040F26811C2F2000138
:102E8000312081F88900FFE740F26810C2F20000AB
:102E900090F889100020002900900DD4FFE70298D7
:102EA00040F26811C2F2000191F88910405CB0FA5A
:102EB00080F040090090FFE70098C00750B1FFE79D
:102EC00040F26811C2F2000191F88900013881F8DE
:102ED0008900D9E700208DF80700FFE79DF807007B
:102EE00040F26811C2F2000191F889100839884255
:102EF00013DCFFE702989DF807201044C07940F2E8
:102F00006811C2F20001114481F83200FFE79DF818
:102F1000070001308DF80700E0E703B070470000BC
:102F200086B00590049103920598006A0190059877
:102F3000406A00900020ADF80A00FFE7BDF80A00E3
:102F4000072821D8FFE7BDF80A100398C840C0073A
:102F500098B1FFE7BDF80A0081000F2000FA01F1E7
:102F60000198884301900498BDF80A10890000FA7E
:102F700001F1019808430190FFE7FFE7BDF80A005F
:102F80000130ADF80A00D9E70820ADF80A00FFE7E4
:102F9000BDF80A000F2825D8FFE7BDF80A100398EE
:102FA000C840C007B8B1FFE7BDF80A006FF01F01C5
:102FB00001EB80020F2000FA02F20098904300908B
:102FC0000498BDF80A2001EB820100FA01F1009893
:102FD00008430090FFE7FFE7BDF80A000130ADF8B5
:102FE0000A00D5E70198059908620098059948629A
:102FF00006B0704782B001900091009801998862F4
:1030000002B0704782B001900091009801998861E8
:1030100002B0704780B588B0079007980690B0F16D
:10302000904F28D0FFE7069840F20041C4F6000117
:10303000884229D0FFE7069840F60001C4F6000157
:1030400088422AD0FFE7069840F60041C4F6000106
:1030500088422BD0FFE7069841F20001C4F6000138
:1030600088422CD0FFE7069841F20041C4F60001E7
:1030700088422DD035E040F61120059000F036FD55
:10308000059800F01FFD2DE040F61220049000F09E
:103090002DFD049800F016FD24E040F61320039067
:1030A00000F024FD039800F00DFD1BE040F6142015
:1030B000029000F01BFD029800F004FD12E040F6C3
:1030C0001520019000F012FD019800F0FBFC09E0D2
:1030D00040F61620009000F009FD009800F0F2FC88
:1030E00000E0FFE708B080BD87B00690059104922C
:1030F00003930698006801900698C068009000202D
:10310000ADF80A00FFE7BDF80A000F2832D8FFE744
:10311000BDF80A100398C840C00720B3FFE7BDF808
:103120000A004100032000FA01F201999143019144
:103130000599BDF80A20520001FA02F201991143E3
:103140000191BDF80A10490000FA01F10098884386
:1031500000900498BDF80A10490000FA01F10098A7
:1031600008430090FFE7FFE7BDF80A000130ADF823
:103170000A00C8E701980699086000980699C86097
:1031800007B0704786B005908DF813100392029334
:103190009DF81300012806D1FFE7029A05994868B7
:1031A0001043486005E0029A0599486890434860DA
:1031B000FFE70598806800900020ADF80600FFE763
:1031C000BDF806000F2821D8FFE7BDF806100298C9
:1031D000C840C00798B1FFE7BDF8060041000320D2
:1031E00000FA01F10098884300900398BDF806109A
:1031F000490000FA01F1009808430090FFE7FFE75B
:10320000BDF806000130ADF80600D9E70098059931
:10321000886006B07047000083B002900191009270
:1032200001986FF39F20019000980199084302993B
:1032300088600299886840F40040886003B0704755
:1032400081B000900099486840F00070486001B07B
:103250007047000081B000900098406AC0B201B091
:103260007047000082B0019000919DF80000019924
:10327000886202B07047000080B584B00390039864
:10328000029045F20041C4F20001884208D0FFE7F5
:10329000029845F60001C4F20001884209D011E00D
:1032A00040F21540019000F021FC019800F00AFC6A
:1032B00009E040F21640009000F018FC009800F081
:1032C00001FC00E0FFE704B080BD000081B0009089
:1032D0000099086840F00100086001B070470000E4
:1032E00082B001900091009A0199C8691043C861A9
:1032F00002B0704783B001900091019880690099F5
:10330000084204D0FFE701208DF80B0003E0002005
:103310008DF80B00FFE79DF80B0003B0704700002D
:1033200082B001900091009A0199086810430860EA
:1033300002B0704782B0019000910098C0F3044140
:10334000012000FA01F20199C8691043C86102B076
:103350007047000085B0039002910020019000901A
:103360000398BDF8081089094058029901F01F021E
:10337000012101FA02F2104001900398029A920D85
:103380008058029AC2F3044291400840009001988C
:1033900038B1FFE7009820B1FFE701208DF8130056
:1033A00003E000208DF81300FFE79DF8130005B03F
:1033B0007047000083B00290019100920299486822
:1033C00040F2FF3290434860019A029948681043E6
:1033D00048600299486820F480604860009A029929
:1033E00048681043486003B07047000083B0029003
:1033F000019100920299086920F47F4008610299C6
:10340000086920F0FF0008610198000280B2019075
:103410009DF8000000900198009940EA010202998D
:1034200008691043086103B07047000081B0009044
:103430000099486840F40050486001B070470000AF
:1034400084B003900291019200930399086920F0DF
:10345000704008610399086920F4700008610399BD
:10346000086920F470200861029800070290019812
:1034700000053FFA80F0019000994FF4702000EAB7
:1034800001400090029801990843009940EA010226
:10349000039908691043086104B0704782B0019035
:1034A00000910199486820F47F004860009A0199D2
:1034B000486840EA0240486002B0704780B586B074
:1034C0000020049040F26810C2F200009021FCF746
:1034D00090FE40F24410C2F200000168086849689A
:1034E00080F001000843E0B1FFE745F20400C0F6B8
:1034F0000000016840F26010C2F200000160016843
:1035000040F26410C2F20000016045F20001C0F612
:10351000000109680591059981F3088800688047D2
:103520004BE040F24410C2F20000016808684968AC
:1035300080F00100084300283ED1FFE740F211501F
:1035400000F0ACFA40F2125000F0A8FA40F2157008
:1035500000F0A4FA40F2167000F0A0FA4FF4E06018
:1035600000F09CFAFDF7CEFDFDF7EEFDFEF700F84A
:10357000FDF702FE40F20040C4F600000290012177
:10358000002201924FF480430393FFF7ADFD0199B0
:103590000298039B0322FFF7F5FD02980399FFF7BA
:1035A00031FDFEF7BFF940F25811C2F200010820C8
:1035B0000870FEF7E5FEFFE7FFE7FFE740F20800CF
:1035C000C2F20000013044F2F071C0F6000107229F
:1035D000FEF72EFFB0B3FFE74CF20000C0F6030089
:1035E00001210091FFF750FA00994CF20040C0F61B
:1035F0000300FFF749FA44F63501C0F600010868F8
:10360000D1F8032040F20801C2F20001C1F83620CF
:10361000C1F833000720A1F8320140F20040C4F69F
:1036200000004FF48041FFF7E5FC40F25A11C2F26E
:1036300000016420087140F25811C2F2000102201A
:103640000870FFE7FEF79CFE002006B080BD00007A
:1036500080B584B08DF80F008DF80E108DF80D2018
:1036600000200290019000904EF60C50CEF2000027
:10367000006800F4E060B0F5E06F05D1FFE70020DE
:103680000190042000904AE04EF60C50CEF200006B
:10369000006800F4E060B0F5C06F05D1FFE70120DD
:1036A00001900320009039E04EF60C50CEF200005D
:1036B000006800F4E060B0F5A06F04D1FFE70220DD
:1036C0000190009029E04EF60C50CEF20000006808
:1036D00000F4E060B0F5806F05D1FFE703200190B2
:1036E0000120009018E04EF60C50CEF20000006869
:1036F00000F4E060B0F5407F05D1FFE704200190C1
:103700000020009007E04FF4A06000F037F802209E
:1037100001900090FFE7FFE7FFE7FFE7FFE79DF875
:103720000E000199C1F10401884002909DF80D003E
:103730000099C1F104020F21D140014002980843D1
:10374000029002980001029002989DF80F104EF22C
:103750000042CEF2000288549DF80F2002F01F01B3
:10376000012088404EF20011CEF2000141EAD20160
:1037700021F00301086004B080BD000081B000901A
:1037800000980021C0F2FA5108434EF60C51CEF2D7
:103790000001086001B0704782B00190009101986B
:1037A00000994FF68072C1F6FF72114008434EF641
:1037B0000851CEF200010860BFF34F8F02B070478E
:1037C00080B541F20001C4F20201086840F0010036
:1037D0000860002000F060F810B9FFE7FFE7FEE79F
:1037E00041F20401C4F20201086820F003000860FD
:1037F000FFE741F20400C4F20200006810F00C0F71
:1038000001D0FFE7F5E741F20001C4F202010868C8
:103810004FF6FF72CFF6866210400860086820F409
:103820008020086041F20401C4F202014FF400302C
:10383000086041F20801C4F202014FF47F00086001
:1038400041F22C01C4F202010020086041F2300173
:10385000C4F20201086080BD81B0ADF80000BDF87F
:103860000000800941F20001C4F202014058BDF895
:10387000001001F01F01C840C00720B1FFE7012080
:103880008DF8030003E000208DF80300FFE79DF8AA
:10389000030001B07047000080B58AB0ADF8260083
:1038A000002008908DF81F008DF81E00BDF826003E
:1038B00001460691002861D0FFE7069810280FD036
:1038C000FFE70698182800F0A880FFE70698B0F5F3
:1038D000006F2BD0FFE70698B0F5106F73D0C4E0EF
:1038E000FFE79DF81E100020059041B9FFE70898FA
:1038F0004FF6FF71401A18BF01200590FFE70598A9
:10390000C00748B1FFE71120FFF7A6FF8DF81E00A2
:10391000089801300890E4E71120FFF79DFF20B1DF
:10392000FFE701208DF81F00FFE79FE0FFE79DF80C
:103930001E100020049041B9FFE708986FF07C4109
:10394000401A18BF01200490FFE70498C00750B147
:10395000FFE740F60100FFF77FFF8DF81E00089893
:1039600001300890E3E740F60100FFF775FF20B152
:10397000FFE701208DF81F00FFE777E0FFE79DF8E4
:103980001E100020039039B9FFE70898B0F5A06039
:1039900018BF01200390FFE70398C00748B1FFE775
:1039A0000120FFF759FF8DF81E000898013008909C
:1039B000E5E70120FFF750FF20B1FFE701208DF878
:1039C0001F00FFE752E0FFE79DF81E100020029065
:1039D00051B9FFE708984FF6FF71C0F20F01401A86
:1039E00018BF01200290FFE70298C00750B1FFE71F
:1039F00040F60110FFF730FF8DF81E0008980130E7
:103A00000890E1E740F60110FFF726FF20B1FFE73D
:103A100001208DF81F00FFE728E0FFE79DF81E104A
:103A20000020019051B9FFE708984FF6FF71C0F2EE
:103A30000F01401A18BF01200190FFE70198C0074D
:103A400048B1FFE71920FFF707FF8DF81E0008981F
:103A500001300890E2E71920FFF7FEFE20B1FFE7F2
:103A600001208DF81F00FFE700E0FFE79DF81F0031
:103A70000AB080BD81B0ADF80200BDF8020000F0D0
:103A80001F02012101FA02F3810941F20002C4F28E
:103A9000020288589843885001B0704781B0ADF851
:103AA0000200BDF8020000F01F02012101FA02F33A
:103AB000810941F20002C4F202028858184388507A
:103AC00001B0704781B0ADF80200BDF8020000F00F
:103AD0001F02012101FA02F3810941F20002C4F23E
:103AE000020288589843885001B0704781B0ADF801
:103AF0000200BDF8020000F01F02012101FA02F3EA
:103B0000810941F20002C4F2020288581843885029
:103B100001B0704784B000200390029041F2000190
:103B2000C4F20201086840F001000860FFE7039852
:103B30000130039041F20000C4F20200006800F07E
:103B400002000290FFE702990020019039B9FFE7D7
:103B50000398B0F5A06018BF01200190FFE701981D
:103B6000C0070028E3D1FFE741F20000C4F20200E1
:103B700000688007002802D4FFE7FFE7FEE742F273
:103B80000001C4F202010868032262F30200086027
:103B900041F21C01C4F20201086840F08050086044
:103BA00041F20401C4F2020100910868086008684B
:103BB0000860086840F48060086008684FF6FF728B
:103BC000CFF2C37210400860086840F002600860DD
:103BD00041F20001C4F20201086840F08070086000
:103BE000FFE741F20000C4F20200006880010028F3
:103BF00001D4FFE7F5E741F20401C4F202010868CD
:103C000020F003000860086840F002000860FFE749
:103C100041F20400C4F20200006800F00C00082821
:103C200001D0FFE7F4E704B07047000080B5FFF76C
:103C300071FF80BD80B58AB0099009980890B0F1F5
:103C4000804F39D0FFE7089841F20001C4F200012B
:103C500088423AD0FFE7089841F20041C4F20001DF
:103C600088423BD0FFE7089842F60041C4F20101C8
:103C7000884218D0FFE7089843F20041C4F20101DE
:103C8000884234D0FFE7089845F20001C4F20101F0
:103C9000884235D0FFE7089845F20041C4F201019F
:103CA000884236D03EE040F20B300790FFF71EFF0F
:103CB0000798FFF707FF36E04FF480600690FFF7A4
:103CC00015FF0698FFF7FEFE2DE040F20440059038
:103CD000FFF70CFF0598FFF7F5FE24E040F20540E2
:103CE0000490FFF703FF0498FFF7ECFE1BE040F29F
:103CF0000D300390FFF7FAFE0398FFF7E3FE12E0A2
:103D00004FF445700290FFF7F1FE0298FFF7DAFEDC
:103D100009E040F215300190FFF7E8FE0198FFF747
:103D2000D1FE00E0FFE70AB080BD000081B0009046
:103D30000099086840F00100086001B07047000079
:103D400082B00190009100980088019988620198E2
:103D500042F60041C4F2010188421DD0FFE70198FC
:103D6000B0F1804F18D0FFE7019843F20041C4F250
:103D70000101884210D0FFE7019845F20001C4F22A
:103D80000101884208D0FFE7019845F20041C4F2E2
:103D90000101884216D1FFE70199086820F0700000
:103DA00008600098408800F060020199086810439C
:103DB00008600098808800F010020199086810439C
:103DC0000860FFE7009880680199C862019841F295
:103DD0000001C4F20001884216D0FFE7019841F2C9
:103DE0000041C4F2000188420ED0FFE70199086843
:103DF00020F4407008600098808900F440720199B6
:103E0000086810430860FFE7019842F60041C4F2D9
:103E10000101884218D0FFE7019843F20041C4F243
:103E20000101884210D0FFE7019845F20001C4F279
:103E30000101884208D0FFE7019845F20041C4F231
:103E40000101884205D1FFE70098807B0199086352
:103E5000FFE70199486940F00100486102B07047EE
:103E600082B001900091009A0199C8681043C8601F
:103E700002B0704782B001900091009A01990869E0
:103E80009043086102B0704784B00290019102989B
:103E9000C0680199084000900298006901990842A1
:103EA00007D0FFE7009820B1FFE701208DF80F0051
:103EB00003E000208DF80F00FFE79DF80F0004B02D
:103EC0007047000081B000900099002008800099A0
:103ED000488000998880009A4FF6FF7191600099A0
:103EE00088810099887301B0704700000FB4054BBA
:103EF00010B503A9044A029800F0DAF810BC5DF886
:103F000014FB0000DF4700080000002002E008C8A2
:103F1000121F08C1002AFAD170477047002001E043
:103F200001C1121F002AFBD1704700002DE9FF5F7D
:103F300082B00021DDE90430020DDDF840B003431A
:103F400018D044F61050A2F2FF32424315141198D3
:103F500001281FD0A5EB0B00401C5FEA000A4FF0C0
:103F600000064E4FDFF83891B046504615D5CAF1DD
:103F7000000413E0119801244AA3012801D16FEA3B
:103F80000B010298119AC0E90031C0E9024206B063
:103F9000BDE8F09FCBF10000DFE704460021404A76
:103FA000491842EB0450CDE9001012E0E00707D0B9
:103FB00032463B4640464946FCF714FA804689465D
:103FC00032463B4610461946FCF70CFA06460F46A9
:103FD0006410002CEAD1DDE90401DDE90023BAF127
:103FE000000F06DAFCF7FEF942464B46FCF7FAF9F9
:103FF00005E0FCF769FA42464B46FCF765FA0446D1
:104000000E460022284BFCF7E7FA03D84FF0FF30AA
:10401000014607E00022254B20463146FCF73BF9DC
:10402000FCF7C1FA102409E0002C0ADB0A22002365
:10403000FCF700F9039B30321A55641E50EA010266
:10404000F2D1641C039AC4F111031444119A012A99
:1040500003D0012208430DD10AE0084304D0002018
:104060004FF0110B119072E7A3EB0B056D1E0DE0E5
:104070005B4504DD4FF0000205F1010504E003DAC1
:104080004FF00002A5F10105002AECD00298119929
:10409000C0E90231C0E9004579E7000000001440A2
:1040A0000000F03F300000000000F0430000E03F5F
:1040B0002DE9FF4F95B09B468946064600250FE245
:1040C000252877D100242746F84A0121059400E0ED
:1040D000044316F8013F203B01FA03F01042F7D1E8
:1040E00030782A2811D06FF02F033078A0F13002F9
:1040F000092A16D8059A44F0020402EB820203EB67
:1041000042021044761C0590EFE759F8042B059203
:10411000002A03DA504244F40054059044F00204AB
:10412000761C30782E2816D116F8010F44F00404BE
:104130002A280DD06FF02F023078A0F13003092B20
:1041400009D807EB870302EB4303C718761CF3E794
:1041500059F8047B761C30786C280FD006DC4C288C
:1041600017D068280DD06A2814D104E0742810D024
:104170007A280FD10DE044F400140AE044F48014CE
:1041800001E044F440147278824202D104F58014B4
:10419000761C761C307866280BD013DC582877D034
:1041A00009DC002875D04528F6D04628F4D04728E9
:1041B0001AD19DE118E0632835D0642879D06528AC
:1041C00012D195E1702873D008DC6728F1D06928F6
:1041D0006FD06E280DD06F2806D1B5E073282CD093
:1041E000752875D0782874D05A46179990476D1C59
:1041F00075E1C4F30250022809D003280DD0D9F884
:10420000001004280DD00D6009F1040967E1D9F808
:104210000010EA17C1E90052F6E7D9F800100D8046
:10422000F2E70D70F0E719F8041B8DF8001000207C
:104230008DF80100EA46012003E059F804AB4FF085
:10424000FF3061074FF0000102D40DE008F10101D9
:104250008846B9420FDA8045F8DB1AF808100029C1
:10426000F4D108E008F1010188468142FADB1AF82E
:1042700008100029F6D105985B46A0EB08072146F7
:104280003846179A00F094FA284400EB080507E036
:104290004DE029E10DE01AF8010B5A4617999047B5
:1042A000B8F10108F7D25B4621463846179A13E168
:1042B00042E00A220092C4F302524FF0000A022A9E
:1042C00008D059F804CB032A4FEAEC710AD00DE06C
:1042D00029E02AE009F1070121F00702F2E802C112
:1042E000914609E00FFA8CFC4FEAEC71042A03D1E5
:1042F0004FFA8CFC4FEAEC71002907DA0A460021DC
:10430000DCF1000C61EB02012D2202E0220504D554
:104310002B228DF80420012203E0E20701D02022A5
:10432000F7E7904659E00A2102E010220DE0102143
:104330004FF0000A00910BE010224FF0000A44F009
:1043400004040827009203E008224FF0000A0092BC
:10435000C4F30252022A05D059F804CB0021032AE3
:1043600008D009E009F1070121F00702F2E802C1D3
:10437000914605E01FFA8CFC042A01D10CF0FF0CD9
:104380004FF00008220728D5702806D0009B83F044
:10439000100353EA0A0305D00EE040228DF80420F2
:1043A000012208E05CEA010206D030228DF80420E8
:1043B0008DF8050002229046009B83F0080353EA23
:1043C0000A030AD15CEA010201D1620705D5302255
:1043D0008DF804204FF001087F1E582804D034A027
:1043E00003900EA802900DE036A0F9E75346604610
:1043F000009AFBF71FFF84460398825C0298401ED8
:10440000029002705CEA0100F0D1029806A9081A35
:1044100000F1200A600702D524F4803400E001276F
:10442000574502DDA7EB0A0000E0002000EB0A017F
:10443000009005984144401A0590E00306D45B467D
:104440002146179A059800F0B3F90544002706E0C5
:1044500001A85A46C05D179990476D1C7F1C4745BF
:10446000F6DBE0030CD55B462146179A059800F071
:104470009FF9054404E030205A46179990476D1C77
:104480000099481E00900029F5DC08E00298029986
:104490005A460078491C0291179990476D1CBAF151
:1044A0000001AAF1010AF1DC65E100000928010020
:1044B000303132333435363738396162636465669A
:1044C000000000003031323334353637383941425C
:1044D000434445460000000000F058F90544761CAE
:1044E000307800287FF4ECAD19B02846BDE8F08F95
:1044F000620700D4062709F1070222F0070CFCE846
:104500000223E14603F000485FEA080C02D00FF2F4
:10451000702C0DE05FEA045C02D50FF2682C07E016
:104520005FEAC47C02D00FF2602C01E0AFF2700CA5
:104530004FF0FF3823F00043CDF850C065280CD071
:1045400006DC452809D046281DD047283DD13DE04E
:10455000662818D067287ED138E00021112F01DBB2
:10456000112000E0781CCDE9000106A90EA8FFF794
:10457000DDFCDDE90F010E9A03910021009207F1A5
:10458000010A04914DE04FF000400097CDE9011081
:1045900006A90EA8FFF7CAFCDDE90F0203920E9BE5
:1045A00011990022DDF80CA00093049211B9791C36
:1045B00000EB010AB7EB0A0004D4C0F1FF3007F1A9
:1045C000010A0490AAEB0700019044E0012F00DAF1
:1045D00001270021112F01DD112000E03846CDE92F
:1045E000000106A90EA8FFF7A1FCDDE90F010E9A54
:1045F0000391002104910092BA4621070CD403993B
:10460000514500DA8A46BAF1010F05DD009AAAF198
:104610000101515C302908D0B84202DA10F1040FD0
:1046200006DA0121CDE9011015E0AAF10101E9E75F
:10463000002805DC049901440491AAEB000102E082
:10464000411C514500DD8A460499401A401C0190E6
:104650004FF000400290200704D40198504501DB40
:10466000CDF8048000208DF84F0002980DF14F071F
:10467000B0F1004F25D02B200E9002984FF0020889
:1046800000280CDA404202902D200E9007E00A210B
:104690000298FBF7B9FD3031029007F8011DB8F11F
:1046A0000001A8F10108F2DC02980028EFD1791E80
:1046B0000E980870307800F0200040F0450007F8B0
:1046C000020D12A8C01B00F107081498007800B171
:1046D000012000EB0A01019801EBE07105984144CB
:1046E000401A401E0590E00306D45B462146179A07
:1046F000059800F05DF805441498007818B15A4602
:10470000179990476D1CE00324D55B462146179A04
:10471000059800F04DF805441CE00498002807DBDC
:10472000DDE90301884203DD0098405C179901E050
:10473000179930205A469047049805F10105401C0E
:1047400004900198401E019004D12E205A461799DA
:1047500090476D1CBAF10001AAF1010ADDDC05E009
:1047600017F8010B5A46179990476D1CB8F10001D4
:10477000A8F10108F4DC5B462146179A0598ABE6E0
:104780002D0000002B000000200000002DE9F0416A
:10479000044600251E461746880404D405E0394621
:1047A0002020B0476D1C641EF9D52846BDE8F08175
:1047B0002DE9F041044600251E469046C80301D568
:1047C000302700E02027880404D505E0414638461C
:1047D000B0476D1C641EF9D52846BDE8F08138B598
:1047E00004468DF8000069460320ABBE204638BD64
:1047F0005A05070231019A5A0507043103A55A9D4B
:104800005A0507043104C33C9E5A050B06B001014A
:10481000000000225A050B06B00102000000235AD6
:10482000050B06B00103000000245A050B06B00179
:1048300005000000265A06070231019B5A060702AE
:1048400031039D5A06070231049E5A060B06B00238
:1048500001010000255A060B06B0020102000026E5
:104860005A060B06B00201030000275A060B06B0D9
:104870000201040000285A060B06B00301000000E4
:10488000255A060B06B003FF000000235A060B064C
:10489000B0020105000029693263206D61737465FF
:1048A000722073656E64732073746172742073690F
:1048B000676E616C20696E20706167652077726930
:1048C0007465210A00693263206D6173746572201A
:1048D00073656E647320646174612074696D656FC3
:1048E000757420696E2070616765207772697465E0
:1048F000210A00693263206D6173746572207365EB
:104900006E64732073746F70207369676E616C20BE
:1049100074696D656F757420696E207061676520BC
:104920007772697465210A00693263206D6173745E
:1049300065722073656E647320616464726573735D
:104940002074696D656F757420696E20706167658C
:10495000207772697465210A006932632062757379
:10496000206973206275737920696E2070616765B4
:10497000207772697465210A00000000A0490008D0
:10498000000000205001000048070008B849000856
:1049900050010020B00800001C3F0008000000008B
:1049A00061043450000804FD112233B21458C403CA
:0849B0000800C003080000002C
:040000050800015D91
:00000001FF
